{
  "_format": "hh-sol-artifact-1",
  "contractName": "BottleStaking",
  "sourceName": "contracts/BottleStaking.sol",
  "abi": [
    {
      "inputs": [
        {
          "internalType": "contract INFTBottle",
          "name": "_nftCollection",
          "type": "address"
        },
        {
          "internalType": "contract IERC20",
          "name": "_rewardsToken",
          "type": "address"
        }
      ],
      "stateMutability": "nonpayable",
      "type": "constructor"
    },
    {
      "anonymous": false,
      "inputs": [
        {
          "indexed": true,
          "internalType": "address",
          "name": "owner",
          "type": "address"
        },
        {
          "indexed": true,
          "internalType": "address",
          "name": "approved",
          "type": "address"
        },
        {
          "indexed": true,
          "internalType": "uint256",
          "name": "tokenId",
          "type": "uint256"
        }
      ],
      "name": "Approval",
      "type": "event"
    },
    {
      "anonymous": false,
      "inputs": [
        {
          "indexed": true,
          "internalType": "address",
          "name": "owner",
          "type": "address"
        },
        {
          "indexed": true,
          "internalType": "address",
          "name": "operator",
          "type": "address"
        },
        {
          "indexed": false,
          "internalType": "bool",
          "name": "approved",
          "type": "bool"
        }
      ],
      "name": "ApprovalForAll",
      "type": "event"
    },
    {
      "anonymous": false,
      "inputs": [
        {
          "indexed": false,
          "internalType": "address",
          "name": "user",
          "type": "address"
        },
        {
          "indexed": false,
          "internalType": "uint256",
          "name": "_LPId",
          "type": "uint256"
        }
      ],
      "name": "GetLP",
      "type": "event"
    },
    {
      "anonymous": false,
      "inputs": [
        {
          "indexed": true,
          "internalType": "address",
          "name": "previousOwner",
          "type": "address"
        },
        {
          "indexed": true,
          "internalType": "address",
          "name": "newOwner",
          "type": "address"
        }
      ],
      "name": "OwnershipTransferred",
      "type": "event"
    },
    {
      "anonymous": false,
      "inputs": [
        {
          "indexed": false,
          "internalType": "uint256",
          "name": "stakingTime",
          "type": "uint256"
        }
      ],
      "name": "SetStakingTime",
      "type": "event"
    },
    {
      "anonymous": false,
      "inputs": [
        {
          "indexed": false,
          "internalType": "address",
          "name": "user",
          "type": "address"
        },
        {
          "indexed": false,
          "internalType": "uint256[]",
          "name": "_LPIds",
          "type": "uint256[]"
        }
      ],
      "name": "Stake",
      "type": "event"
    },
    {
      "anonymous": false,
      "inputs": [
        {
          "indexed": true,
          "internalType": "address",
          "name": "from",
          "type": "address"
        },
        {
          "indexed": true,
          "internalType": "address",
          "name": "to",
          "type": "address"
        },
        {
          "indexed": true,
          "internalType": "uint256",
          "name": "tokenId",
          "type": "uint256"
        }
      ],
      "name": "Transfer",
      "type": "event"
    },
    {
      "anonymous": false,
      "inputs": [
        {
          "indexed": false,
          "internalType": "address",
          "name": "user",
          "type": "address"
        },
        {
          "indexed": false,
          "internalType": "uint256[]",
          "name": "_LPIds",
          "type": "uint256[]"
        }
      ],
      "name": "Withdraw",
      "type": "event"
    },
    {
      "inputs": [
        {
          "internalType": "address",
          "name": "to",
          "type": "address"
        },
        {
          "internalType": "uint256",
          "name": "tokenId",
          "type": "uint256"
        }
      ],
      "name": "approve",
      "outputs": [],
      "stateMutability": "nonpayable",
      "type": "function"
    },
    {
      "inputs": [
        {
          "internalType": "address",
          "name": "owner",
          "type": "address"
        }
      ],
      "name": "balanceOf",
      "outputs": [
        {
          "internalType": "uint256",
          "name": "",
          "type": "uint256"
        }
      ],
      "stateMutability": "view",
      "type": "function"
    },
    {
      "inputs": [
        {
          "internalType": "uint256",
          "name": "tokenId",
          "type": "uint256"
        }
      ],
      "name": "getApproved",
      "outputs": [
        {
          "internalType": "address",
          "name": "",
          "type": "address"
        }
      ],
      "stateMutability": "view",
      "type": "function"
    },
    {
      "inputs": [
        {
          "internalType": "uint256[]",
          "name": "_tokenIds",
          "type": "uint256[]"
        }
      ],
      "name": "getLP",
      "outputs": [],
      "stateMutability": "nonpayable",
      "type": "function"
    },
    {
      "inputs": [
        {
          "internalType": "address",
          "name": "owner",
          "type": "address"
        },
        {
          "internalType": "address",
          "name": "operator",
          "type": "address"
        }
      ],
      "name": "isApprovedForAll",
      "outputs": [
        {
          "internalType": "bool",
          "name": "",
          "type": "bool"
        }
      ],
      "stateMutability": "view",
      "type": "function"
    },
    {
      "inputs": [
        {
          "internalType": "uint256",
          "name": "",
          "type": "uint256"
        },
        {
          "internalType": "uint256",
          "name": "",
          "type": "uint256"
        }
      ],
      "name": "lpStaking",
      "outputs": [
        {
          "internalType": "uint256",
          "name": "",
          "type": "uint256"
        }
      ],
      "stateMutability": "view",
      "type": "function"
    },
    {
      "inputs": [],
      "name": "name",
      "outputs": [
        {
          "internalType": "string",
          "name": "",
          "type": "string"
        }
      ],
      "stateMutability": "view",
      "type": "function"
    },
    {
      "inputs": [],
      "name": "nftCollection",
      "outputs": [
        {
          "internalType": "contract INFTBottle",
          "name": "",
          "type": "address"
        }
      ],
      "stateMutability": "view",
      "type": "function"
    },
    {
      "inputs": [],
      "name": "owner",
      "outputs": [
        {
          "internalType": "address",
          "name": "",
          "type": "address"
        }
      ],
      "stateMutability": "view",
      "type": "function"
    },
    {
      "inputs": [
        {
          "internalType": "uint256",
          "name": "tokenId",
          "type": "uint256"
        }
      ],
      "name": "ownerOf",
      "outputs": [
        {
          "internalType": "address",
          "name": "",
          "type": "address"
        }
      ],
      "stateMutability": "view",
      "type": "function"
    },
    {
      "inputs": [],
      "name": "renounceOwnership",
      "outputs": [],
      "stateMutability": "nonpayable",
      "type": "function"
    },
    {
      "inputs": [],
      "name": "rewardsToken",
      "outputs": [
        {
          "internalType": "contract IERC20",
          "name": "",
          "type": "address"
        }
      ],
      "stateMutability": "view",
      "type": "function"
    },
    {
      "inputs": [
        {
          "internalType": "address",
          "name": "from",
          "type": "address"
        },
        {
          "internalType": "address",
          "name": "to",
          "type": "address"
        },
        {
          "internalType": "uint256",
          "name": "tokenId",
          "type": "uint256"
        }
      ],
      "name": "safeTransferFrom",
      "outputs": [],
      "stateMutability": "nonpayable",
      "type": "function"
    },
    {
      "inputs": [
        {
          "internalType": "address",
          "name": "from",
          "type": "address"
        },
        {
          "internalType": "address",
          "name": "to",
          "type": "address"
        },
        {
          "internalType": "uint256",
          "name": "tokenId",
          "type": "uint256"
        },
        {
          "internalType": "bytes",
          "name": "data",
          "type": "bytes"
        }
      ],
      "name": "safeTransferFrom",
      "outputs": [],
      "stateMutability": "nonpayable",
      "type": "function"
    },
    {
      "inputs": [
        {
          "internalType": "address",
          "name": "operator",
          "type": "address"
        },
        {
          "internalType": "bool",
          "name": "approved",
          "type": "bool"
        }
      ],
      "name": "setApprovalForAll",
      "outputs": [],
      "stateMutability": "nonpayable",
      "type": "function"
    },
    {
      "inputs": [
        {
          "internalType": "uint256",
          "name": "_stakingTime",
          "type": "uint256"
        }
      ],
      "name": "setStakingTime",
      "outputs": [],
      "stateMutability": "nonpayable",
      "type": "function"
    },
    {
      "inputs": [
        {
          "internalType": "uint256[]",
          "name": "_LPIds",
          "type": "uint256[]"
        }
      ],
      "name": "stake",
      "outputs": [],
      "stateMutability": "nonpayable",
      "type": "function"
    },
    {
      "inputs": [
        {
          "internalType": "uint256",
          "name": "",
          "type": "uint256"
        }
      ],
      "name": "stakerAddress",
      "outputs": [
        {
          "internalType": "address",
          "name": "",
          "type": "address"
        }
      ],
      "stateMutability": "view",
      "type": "function"
    },
    {
      "inputs": [
        {
          "internalType": "address",
          "name": "",
          "type": "address"
        }
      ],
      "name": "stakers",
      "outputs": [
        {
          "internalType": "uint256",
          "name": "amountStaked",
          "type": "uint256"
        },
        {
          "internalType": "uint256",
          "name": "timeOfLastUpdate",
          "type": "uint256"
        },
        {
          "internalType": "uint256",
          "name": "unclaimedRewards",
          "type": "uint256"
        }
      ],
      "stateMutability": "view",
      "type": "function"
    },
    {
      "inputs": [],
      "name": "stakingTime",
      "outputs": [
        {
          "internalType": "uint256",
          "name": "",
          "type": "uint256"
        }
      ],
      "stateMutability": "view",
      "type": "function"
    },
    {
      "inputs": [],
      "name": "start",
      "outputs": [
        {
          "internalType": "uint256",
          "name": "",
          "type": "uint256"
        }
      ],
      "stateMutability": "view",
      "type": "function"
    },
    {
      "inputs": [
        {
          "internalType": "bytes4",
          "name": "interfaceId",
          "type": "bytes4"
        }
      ],
      "name": "supportsInterface",
      "outputs": [
        {
          "internalType": "bool",
          "name": "",
          "type": "bool"
        }
      ],
      "stateMutability": "view",
      "type": "function"
    },
    {
      "inputs": [],
      "name": "symbol",
      "outputs": [
        {
          "internalType": "string",
          "name": "",
          "type": "string"
        }
      ],
      "stateMutability": "view",
      "type": "function"
    },
    {
      "inputs": [
        {
          "internalType": "uint256",
          "name": "tokenId",
          "type": "uint256"
        }
      ],
      "name": "tokenURI",
      "outputs": [
        {
          "internalType": "string",
          "name": "",
          "type": "string"
        }
      ],
      "stateMutability": "view",
      "type": "function"
    },
    {
      "inputs": [
        {
          "internalType": "address",
          "name": "from",
          "type": "address"
        },
        {
          "internalType": "address",
          "name": "to",
          "type": "address"
        },
        {
          "internalType": "uint256",
          "name": "tokenId",
          "type": "uint256"
        }
      ],
      "name": "transferFrom",
      "outputs": [],
      "stateMutability": "nonpayable",
      "type": "function"
    },
    {
      "inputs": [
        {
          "internalType": "address",
          "name": "newOwner",
          "type": "address"
        }
      ],
      "name": "transferOwnership",
      "outputs": [],
      "stateMutability": "nonpayable",
      "type": "function"
    },
    {
      "inputs": [
        {
          "internalType": "address",
          "name": "_user",
          "type": "address"
        }
      ],
      "name": "userStakeInfo",
      "outputs": [
        {
          "internalType": "uint256",
          "name": "_tokensStaked",
          "type": "uint256"
        },
        {
          "internalType": "uint256",
          "name": "_accumulatedRewards",
          "type": "uint256"
        }
      ],
      "stateMutability": "view",
      "type": "function"
    },
    {
      "inputs": [
        {
          "internalType": "uint256[]",
          "name": "_LPIds",
          "type": "uint256[]"
        }
      ],
      "name": "withdraw",
      "outputs": [],
      "stateMutability": "nonpayable",
      "type": "function"
    }
  ],
  "bytecode": "0x60c06040526605e5c2de53c000600b553480156200001c57600080fd5b5060405162002ca538038062002ca58339810160408190526200003f91620001e2565b604080518082018252600a8152694c502d7374616b696e6760b01b60208083019182528351808501909452600284526104c560f41b9084015281519192916200008b916000916200013c565b508051620000a19060019060208401906200013c565b505050620000be620000b8620000e660201b60201c565b620000ea565b60016007556001600160601b0319606092831b811660a052911b166080524260095562000277565b3390565b600680546001600160a01b038381166001600160a01b0319831681179093556040519116919082907f8be0079c531659141344cd1fd0a4f28419497f9722a3daafe3b4186f6b6457e090600090a35050565b8280546200014a9062000221565b90600052602060002090601f0160209004810192826200016e5760008555620001b9565b82601f106200018957805160ff1916838001178555620001b9565b82800160010185558215620001b9579182015b82811115620001b95782518255916020019190600101906200019c565b50620001c7929150620001cb565b5090565b5b80821115620001c75760008155600101620001cc565b60008060408385031215620001f657600080fd5b825162000203816200025e565b602084015190925062000216816200025e565b809150509250929050565b600181811c908216806200023657607f821691505b602082108114156200025857634e487b7160e01b600052602260045260246000fd5b50919050565b6001600160a01b03811681146200027457600080fd5b50565b60805160601c60a05160601c6129d1620002d46000396000818161028c015281816106b9015281816107fd0152818161094201528181610a9401528181610bb9015261137f0152600081816103a60152611bff01526129d16000f3fe608060405234801561001057600080fd5b50600436106101545760003560e01c806301ffc9a71461015957806306fdde0314610181578063081812fc14610196578063095ea7b3146101c15780630f36fcda146101d65780630fbf0a93146101e9578063146d4574146101fc57806323b872dd14610213578063386172f31461022657806342842e0e146102395780634ead43271461024c5780636352211e146102745780636588103b1461028757806370a08231146102ae578063715018a6146102c15780638da5cb5b146102c95780639168ae72146102d1578063940670451461031b57806395d89b4114610344578063983d95ce1461034c578063a22cb4651461035f578063b88d4fde14610372578063be9a655514610385578063c87b56dd1461038e578063d1af0c7d146103a1578063e985e9c5146103c8578063f2fde38b146103db578063f3e2595e146103ee575b600080fd5b61016c61016736600461250a565b610401565b60405190151581526020015b60405180910390f35b610189610453565b60405161017891906126d6565b6101a96101a4366004612544565b6104e5565b6040516001600160a01b039091168152602001610178565b6101d46101cf36600461244d565b61050c565b005b6101d46101e4366004612479565b610627565b6101d46101f7366004612479565b610ce9565b610205600a5481565b604051908152602001610178565b6101d46102213660046122ff565b610f2c565b6101d4610234366004612544565b610f5d565b6101d46102473660046122ff565b610fa0565b61025f61025a36600461228c565b610fbb565b60408051928352602083019190915201610178565b6101a9610282366004612544565b610fe8565b6101a97f000000000000000000000000000000000000000000000000000000000000000081565b6102056102bc36600461228c565b61101d565b6101d46110a3565b6101a96110b7565b6103006102df36600461228c565b600c6020526000908152604090208054600182015460029092015490919083565b60408051938452602084019290925290820152606001610178565b6101a9610329366004612544565b600d602052600090815260409020546001600160a01b031681565b6101896110c6565b6101d461035a366004612479565b6110d5565b6101d461036d36600461241f565b6114ad565b6101d4610380366004612340565b6114bc565b61020560095481565b61018961039c366004612544565b6114f4565b6101a97f000000000000000000000000000000000000000000000000000000000000000081565b61016c6103d63660046122c6565b611568565b6101d46103e936600461228c565b611596565b6102056103fc366004612576565b61160f565b60006001600160e01b031982166380ac58cd60e01b148061043257506001600160e01b03198216635b5e139f60e01b145b8061044d57506301ffc9a760e01b6001600160e01b03198316145b92915050565b60606000805461046290612880565b80601f016020809104026020016040519081016040528092919081815260200182805461048e90612880565b80156104db5780601f106104b0576101008083540402835291602001916104db565b820191906000526020600020905b8154815290600101906020018083116104be57829003601f168201915b5050505050905090565b60006104f082611640565b506000908152600460205260409020546001600160a01b031690565b600061051782610fe8565b9050806001600160a01b0316836001600160a01b0316141561058a5760405162461bcd60e51b815260206004820152602160248201527f4552433732313a20617070726f76616c20746f2063757272656e74206f776e656044820152603960f91b60648201526084015b60405180910390fd5b336001600160a01b03821614806105a657506105a68133611568565b6106185760405162461bcd60e51b815260206004820152603e60248201527f4552433732313a20617070726f76652063616c6c6572206973206e6f7420746f60448201527f6b656e206f776e6572206e6f7220617070726f76656420666f7220616c6c00006064820152608401610581565b6106228383611665565b505050565b6002600754141561064a5760405162461bcd60e51b8152600401610581906127bb565b6002600755600381146106b75760405162461bcd60e51b815260206004820152602f60248201527f426f74746c655374616b696e673a204e6f206d6f7265207468616e203320626f60448201526e74746c657320617420612074696d6560881b6064820152608401610581565b7f00000000000000000000000000000000000000000000000000000000000000006001600160a01b031663c21aa11b838360008181106106f9576106f9612916565b905060200201356040518263ffffffff1660e01b815260040161071e91815260200190565b60206040518083038186803b15801561073657600080fd5b505afa15801561074a573d6000803e3d6000fd5b505050506040513d601f19601f8201168201806040525081019061076e919061255d565b6001146107fb5760405162461bcd60e51b815260206004820152604f60248201527f426f74746c655374616b696e673a20546865207a65726f20656c656d656e742060448201527f6f6620746865206172726179206d75737420657175616c20746865207479706560648201526e206f66206265657220626f74746c6560881b608482015260a401610581565b7f00000000000000000000000000000000000000000000000000000000000000006001600160a01b031663c21aa11b8383600181811061083d5761083d612916565b905060200201356040518263ffffffff1660e01b815260040161086291815260200190565b60206040518083038186803b15801561087a57600080fd5b505afa15801561088e573d6000803e3d6000fd5b505050506040513d601f19601f820116820180604052508101906108b2919061255d565b6002146109405760405162461bcd60e51b815260206004820152605060248201527f426f74746c655374616b696e673a2054686520666972737420656c656d656e7460448201527f206f6620746865206172726179206d75737420657175616c207468652074797060648201526f65206f662077696e6520626f74746c6560801b608482015260a401610581565b7f00000000000000000000000000000000000000000000000000000000000000006001600160a01b031663c21aa11b8383600281811061098257610982612916565b905060200201356040518263ffffffff1660e01b81526004016109a791815260200190565b60206040518083038186803b1580156109bf57600080fd5b505afa1580156109d3573d6000803e3d6000fd5b505050506040513d601f19601f820116820180604052508101906109f7919061255d565b600314610a855760405162461bcd60e51b815260206004820152605060248201527f426f74746c655374616b696e673a20546865207365636f6e6420656c656d656e60448201527f74206f6620746865206172726179206d75737420657175616c2074686520747960648201526f7065206f662072756d20626f74746c6560801b608482015260a401610581565b8060005b81811015610c6257337f00000000000000000000000000000000000000000000000000000000000000006001600160a01b0316636352211e868685818110610ad357610ad3612916565b905060200201356040518263ffffffff1660e01b8152600401610af891815260200190565b60206040518083038186803b158015610b1057600080fd5b505afa158015610b24573d6000803e3d6000fd5b505050506040513d601f19601f82011682018060405250810190610b4891906122a9565b6001600160a01b031614610bb75760405162461bcd60e51b815260206004820152603060248201527f426f74746c655374616b696e673a2043616e2774207374616b6520746f6b656e60448201526f7320796f7520646f6e2774206f776e2160801b6064820152608401610581565b7f00000000000000000000000000000000000000000000000000000000000000006001600160a01b03166323b872dd3330878786818110610bfa57610bfa612916565b905060200201356040518463ffffffff1660e01b8152600401610c1f9392919061260f565b600060405180830381600087803b158015610c3957600080fd5b505af1158015610c4d573d6000803e3d6000fd5b5050505080610c5b906128bb565b9050610a89565b50600160086000828254610c7691906127f2565b90915550506008546000908152600e60205260409020610c9790848461222c565b50610ca4336008546116d3565b7f775bba1f326bfff5be1383303ddcb66a65102a84b9b03eeb3460e1645f6490ac33600854604051610cd79291906126bd565b60405180910390a15050600160075550565b60026007541415610d0c5760405162461bcd60e51b8152600401610581906127bb565b6002600755600a54600954610d2191906127f2565b4210610d6f5760405162461bcd60e51b815260206004820152601e60248201527f426f74746c655374616b696e673a205374616b696e67206973206f76657200006044820152606401610581565b336000908152600c602052604090205415610dbe576000610d9033426117f3565b336000908152600c6020526040812060020180549293508392909190610db79084906127f2565b9091555050505b8060005b81811015610ebf5733610dec858584818110610de057610de0612916565b90506020020135610fe8565b6001600160a01b031614610e5e5760405162461bcd60e51b815260206004820152603360248201527f426f74746c655374616b696e673a2043616e2774207374616b65206c702d746f6044820152726b656e7320796f7520646f6e2774206f776e2160681b6064820152608401610581565b33600d6000868685818110610e7557610e75612916565b90506020020135815260200190815260200160002060006101000a8154816001600160a01b0302191690836001600160a01b0316021790555080610eb8906128bb565b9050610dc2565b50336000908152600c602052604081208054839290610edf9084906127f2565b9091555050336000818152600c60205260409081902042600190910155517fbd6539044374e650773e9c709c54c777fc38f8ff96c2619e7012817e0f987cfa91610cd79186908690612670565b610f36338261186f565b610f525760405162461bcd60e51b81526004016105819061276d565b6106228383836118cd565b610f65611a57565b600a8190556040518181527f70cecd13b2d7a695392d24bce81e559853cce78f1931e2ba049bb3ebde1069639060200160405180910390a150565b610622838383604051806020016040528060008152506114bc565b6001600160a01b0381166000908152600c60205260408120548190610fdf84611ab6565b91509150915091565b6000818152600260205260408120546001600160a01b03168061044d5760405162461bcd60e51b81526004016105819061273b565b60006001600160a01b0382166110875760405162461bcd60e51b815260206004820152602960248201527f4552433732313a2061646472657373207a65726f206973206e6f7420612076616044820152683634b21037bbb732b960b91b6064820152608401610581565b506001600160a01b031660009081526003602052604090205490565b6110ab611a57565b6110b56000611b56565b565b6006546001600160a01b031690565b60606001805461046290612880565b600260075414156110f85760405162461bcd60e51b8152600401610581906127bb565b6002600755600a5460095461110d91906127f2565b421161116a5760405162461bcd60e51b815260206004820152602660248201527f426f74746c655374616b696e673a205374616b696e67206973206e6f74206f76604482015265195c881e595d60d21b6064820152608401610581565b336000908152600c60205260409020546111da5760405162461bcd60e51b815260206004820152602b60248201527f426f74746c655374616b696e673a20596f752068617665206e6f206c702d746f60448201526a1ad95b9cc81cdd185ad95960aa1b6064820152608401610581565b6111e2611ba8565b8060005b818110156114405733600d600086868581811061120557611205612916565b60209081029290920135835250810191909152604001600020546001600160a01b0316146112815760405162461bcd60e51b815260206004820152602360248201527f426f74746c655374616b696e673a204e6f742061206c702d746f6b656e206f776044820152623732b960e91b6064820152608401610581565b6000600d600086868581811061129957611299612916565b90506020020135815260200190815260200160002060006101000a8154816001600160a01b0302191690836001600160a01b031602179055506112f38484838181106112e7576112e7612916565b90506020020135611c2e565b6000600e600086868581811061130b5761130b612916565b90506020020135815260200190815260200160002080548060200260200160405190810160405280929190818152602001828054801561136a57602002820191906000526020600020905b815481526020019060010190808311611356575b5050505050905060005b815181101561142b577f00000000000000000000000000000000000000000000000000000000000000006001600160a01b03166323b872dd30338585815181106113c0576113c0612916565b60200260200101516040518463ffffffff1660e01b81526004016113e69392919061260f565b600060405180830381600087803b15801561140057600080fd5b505af1158015611414573d6000803e3d6000fd5b505050508080611423906128bb565b915050611374565b50508080611438906128bb565b9150506111e6565b50336000908152600c60205260408120805483929061146090849061283d565b9091555050336000818152600c60205260409081902042600190910155517f67e9df8b3c7743c9f1b625ba4f2b4e601206dbd46ed5c33c85a1242e4d23a2d191610cd79186908690612670565b6114b8338383611cb7565b5050565b6114c6338361186f565b6114e25760405162461bcd60e51b81526004016105819061276d565b6114ee84848484611d82565b50505050565b60606114ff82611640565b600061151660408051602081019091526000815290565b905060008151116115365760405180602001604052806000815250611561565b8061154084611db5565b6040516020016115519291906125e0565b6040516020818303038152906040525b9392505050565b6001600160a01b03918216600090815260056020908152604080832093909416825291909152205460ff1690565b61159e611a57565b6001600160a01b0381166116035760405162461bcd60e51b815260206004820152602660248201527f4f776e61626c653a206e6577206f776e657220697320746865207a65726f206160448201526564647265737360d01b6064820152608401610581565b61160c81611b56565b50565b600e602052816000526040600020818154811061162b57600080fd5b90600052602060002001600091509150505481565b61164981611eb2565b61160c5760405162461bcd60e51b81526004016105819061273b565b600081815260046020526040902080546001600160a01b0319166001600160a01b038416908117909155819061169a82610fe8565b6001600160a01b03167f8c5be1e5ebec7d5bd14f71427d1e84f3dd0314c0f7b2291e5b200ac8c7c3b92560405160405180910390a45050565b6001600160a01b0382166117295760405162461bcd60e51b815260206004820181905260248201527f4552433732313a206d696e7420746f20746865207a65726f20616464726573736044820152606401610581565b61173281611eb2565b1561177e5760405162461bcd60e51b815260206004820152601c60248201527b115490cdcc8c4e881d1bdad95b88185b1c9958591e481b5a5b9d195960221b6044820152606401610581565b6001600160a01b03821660009081526003602052604081208054600192906117a79084906127f2565b909155505060008181526002602052604080822080546001600160a01b0319166001600160a01b038616908117909155905183929060008051602061297c833981519152908290a45050565b6001600160a01b0382166000908152600c6020908152604080832081516060810183528154808252600183015494820185905260029092015492810192909252600b54919262015180929190611849908761283d565b611853919061281e565b61185d919061281e565b611867919061280a565b949350505050565b60008061187b83610fe8565b9050806001600160a01b0316846001600160a01b031614806118a257506118a28185611568565b806118675750836001600160a01b03166118bb846104e5565b6001600160a01b031614949350505050565b826001600160a01b03166118e082610fe8565b6001600160a01b0316146119445760405162461bcd60e51b815260206004820152602560248201527f4552433732313a207472616e736665722066726f6d20696e636f72726563742060448201526437bbb732b960d91b6064820152608401610581565b6001600160a01b0382166119a65760405162461bcd60e51b8152602060048201526024808201527f4552433732313a207472616e7366657220746f20746865207a65726f206164646044820152637265737360e01b6064820152608401610581565b6119b1600082611665565b6001600160a01b03831660009081526003602052604081208054600192906119da90849061283d565b90915550506001600160a01b0382166000908152600360205260408120805460019290611a089084906127f2565b909155505060008181526002602052604080822080546001600160a01b0319166001600160a01b03868116918217909255915184939187169160008051602061297c83398151915291a4505050565b33611a606110b7565b6001600160a01b0316146110b55760405162461bcd60e51b815260206004820181905260248201527f4f776e61626c653a2063616c6c6572206973206e6f7420746865206f776e65726044820152606401610581565b6001600160a01b0381166000908152600c6020526040812054611af257506001600160a01b03166000908152600c602052604090206002015490565b600a54600954611b0291906127f2565b421115611b4a576000611b2483600a54600954611b1f91906127f2565b6117f3565b6001600160a01b0384166000908152600c602052604090206002015461156191906127f2565b6000611b2483426117f3565b600680546001600160a01b038381166001600160a01b0319831681179093556040519116919082907f8be0079c531659141344cd1fd0a4f28419497f9722a3daafe3b4186f6b6457e090600090a35050565b336000818152600c6020526040812060020154600a5460095492939192611bd39291611b1f916127f2565b611bdd91906127f2565b336000818152600c602052604081204260018201556002015590915061160c907f00000000000000000000000000000000000000000000000000000000000000006001600160a01b03169083611ecf565b6000611c3982610fe8565b9050611c46600083611665565b6001600160a01b0381166000908152600360205260408120805460019290611c6f90849061283d565b909155505060008281526002602052604080822080546001600160a01b0319169055518391906001600160a01b0384169060008051602061297c833981519152908390a45050565b816001600160a01b0316836001600160a01b03161415611d155760405162461bcd60e51b815260206004820152601960248201527822a9219b99189d1030b8383937bb32903a379031b0b63632b960391b6044820152606401610581565b6001600160a01b03838116600081815260056020908152604080832094871680845294825291829020805460ff191686151590811790915591519182527f17307eab39ab6107e8899845ad3d59bd9653f200f220920489ca2b5937696c31910160405180910390a3505050565b611d8d8484846118cd565b611d9984848484611f25565b6114ee5760405162461bcd60e51b8152600401610581906126e9565b606081611dd95750506040805180820190915260018152600360fc1b602082015290565b8160005b8115611e035780611ded816128bb565b9150611dfc9050600a8361280a565b9150611ddd565b6000816001600160401b03811115611e1d57611e1d61292c565b6040519080825280601f01601f191660200182016040528015611e47576020820181803683370190505b5090505b841561186757611e5c60018361283d565b9150611e69600a866128d6565b611e749060306127f2565b60f81b818381518110611e8957611e89612916565b60200101906001600160f81b031916908160001a905350611eab600a8661280a565b9450611e4b565b6000908152600260205260409020546001600160a01b0316151590565b6106228363a9059cbb60e01b8484604051602401611eee9291906126bd565b60408051601f198184030181529190526020810180516001600160e01b03166001600160e01b031990931692909217909152612039565b6000611f39846001600160a01b031661210b565b1561202e57604051630a85bd0160e11b81526001600160a01b0385169063150b7a0290611f70903390899088908890600401612633565b602060405180830381600087803b158015611f8a57600080fd5b505af1925050508015611fba575060408051601f3d908101601f19168201909252611fb791810190612527565b60015b612014573d808015611fe8576040519150601f19603f3d011682016040523d82523d6000602084013e611fed565b606091505b50805161200c5760405162461bcd60e51b8152600401610581906126e9565b805181602001fd5b6001600160e01b031916630a85bd0160e11b149050611867565b506001949350505050565b600061208e826040518060400160405280602081526020017f5361666545524332303a206c6f772d6c6576656c2063616c6c206661696c6564815250856001600160a01b031661211a9092919063ffffffff16565b80519091501561062257808060200190518101906120ac91906124ed565b6106225760405162461bcd60e51b815260206004820152602a60248201527f5361666545524332303a204552433230206f7065726174696f6e20646964206e6044820152691bdd081cdd58d8d9595960b21b6064820152608401610581565b6001600160a01b03163b151590565b606061186784846000858561212e8561210b565b61217a5760405162461bcd60e51b815260206004820152601d60248201527f416464726573733a2063616c6c20746f206e6f6e2d636f6e74726163740000006044820152606401610581565b600080866001600160a01b0316858760405161219691906125c4565b60006040518083038185875af1925050503d80600081146121d3576040519150601f19603f3d011682016040523d82523d6000602084013e6121d8565b606091505b50915091506121e88282866121f3565b979650505050505050565b60608315612202575081611561565b8251156122125782518084602001fd5b8160405162461bcd60e51b815260040161058191906126d6565b828054828255906000526020600020908101928215612267579160200282015b8281111561226757823582559160200191906001019061224c565b50612273929150612277565b5090565b5b808211156122735760008155600101612278565b60006020828403121561229e57600080fd5b813561156181612942565b6000602082840312156122bb57600080fd5b815161156181612942565b600080604083850312156122d957600080fd5b82356122e481612942565b915060208301356122f481612942565b809150509250929050565b60008060006060848603121561231457600080fd5b833561231f81612942565b9250602084013561232f81612942565b929592945050506040919091013590565b6000806000806080858703121561235657600080fd5b843561236181612942565b9350602085013561237181612942565b92506040850135915060608501356001600160401b038082111561239457600080fd5b818701915087601f8301126123a857600080fd5b8135818111156123ba576123ba61292c565b604051601f8201601f19908116603f011681019083821181831017156123e2576123e261292c565b816040528281528a60208487010111156123fb57600080fd5b82602086016020830137600060208483010152809550505050505092959194509250565b6000806040838503121561243257600080fd5b823561243d81612942565b915060208301356122f481612957565b6000806040838503121561246057600080fd5b823561246b81612942565b946020939093013593505050565b6000806020838503121561248c57600080fd5b82356001600160401b03808211156124a357600080fd5b818501915085601f8301126124b757600080fd5b8135818111156124c657600080fd5b8660208260051b85010111156124db57600080fd5b60209290920196919550909350505050565b6000602082840312156124ff57600080fd5b815161156181612957565b60006020828403121561251c57600080fd5b813561156181612965565b60006020828403121561253957600080fd5b815161156181612965565b60006020828403121561255657600080fd5b5035919050565b60006020828403121561256f57600080fd5b5051919050565b6000806040838503121561258957600080fd5b50508035926020909101359150565b600081518084526125b0816020860160208601612854565b601f01601f19169290920160200192915050565b600082516125d6818460208701612854565b9190910192915050565b600083516125f2818460208801612854565b835190830190612606818360208801612854565b01949350505050565b6001600160a01b039384168152919092166020820152604081019190915260600190565b6001600160a01b038581168252841660208201526040810183905260806060820181905260009061266690830184612598565b9695505050505050565b6001600160a01b0384168152604060208201819052810182905260006001600160fb1b038311156126a057600080fd5b8260051b8085606085013760009201606001918252509392505050565b6001600160a01b03929092168252602082015260400190565b6020815260006115616020830184612598565b60208082526032908201527f4552433732313a207472616e7366657220746f206e6f6e20455243373231526560408201527131b2b4bb32b91034b6b83632b6b2b73a32b960711b606082015260800190565b602080825260189082015277115490cdcc8c4e881a5b9d985b1a59081d1bdad95b88125160421b604082015260600190565b6020808252602e908201527f4552433732313a2063616c6c6572206973206e6f7420746f6b656e206f776e6560408201526d1c881b9bdc88185c1c1c9bdd995960921b606082015260800190565b6020808252601f908201527f5265656e7472616e637947756172643a207265656e7472616e742063616c6c00604082015260600190565b60008219821115612805576128056128ea565b500190565b60008261281957612819612900565b500490565b6000816000190483118215151615612838576128386128ea565b500290565b60008282101561284f5761284f6128ea565b500390565b60005b8381101561286f578181015183820152602001612857565b838111156114ee5750506000910152565b600181811c9082168061289457607f821691505b602082108114156128b557634e487b7160e01b600052602260045260246000fd5b50919050565b60006000198214156128cf576128cf6128ea565b5060010190565b6000826128e5576128e5612900565b500690565b634e487b7160e01b600052601160045260246000fd5b634e487b7160e01b600052601260045260246000fd5b634e487b7160e01b600052603260045260246000fd5b634e487b7160e01b600052604160045260246000fd5b6001600160a01b038116811461160c57600080fd5b801515811461160c57600080fd5b6001600160e01b03198116811461160c57600080fdfeddf252ad1be2c89b69c2b068fc378daa952ba7f163c4a11628f55a4df523b3efa2646970667358221220fcbf4e2efe6ac20d36c77ace6842060ca82bf90b9f7a24b490709c719fcd3b2b64736f6c63430008070033",
  "linkReferences": {},
  "deployedLinkReferences": {}
}