{
  "_format": "hh-sol-artifact-1",
  "contractName": "Lottery",
  "sourceName": "contracts/Lottery.sol",
  "abi": [
    {
      "inputs": [
        {
          "internalType": "contract INFTBottle",
          "name": "_nftCollection",
          "type": "address"
        },
        {
          "internalType": "contract INFTBox",
          "name": "_nftBox",
          "type": "address"
        },
        {
          "internalType": "contract IERC20",
          "name": "_rewardsToken",
          "type": "address"
        }
      ],
      "stateMutability": "nonpayable",
      "type": "constructor"
    },
    {
      "anonymous": false,
      "inputs": [
        {
          "indexed": false,
          "internalType": "address",
          "name": "user",
          "type": "address"
        },
        {
          "indexed": false,
          "internalType": "uint256",
          "name": "amount",
          "type": "uint256"
        }
      ],
      "name": "ClaimWinBeer",
      "type": "event"
    },
    {
      "anonymous": false,
      "inputs": [
        {
          "indexed": false,
          "internalType": "address",
          "name": "user",
          "type": "address"
        },
        {
          "indexed": false,
          "internalType": "uint256",
          "name": "amount",
          "type": "uint256"
        }
      ],
      "name": "ClaimWinRum",
      "type": "event"
    },
    {
      "anonymous": false,
      "inputs": [
        {
          "indexed": false,
          "internalType": "address",
          "name": "user",
          "type": "address"
        },
        {
          "indexed": false,
          "internalType": "uint256",
          "name": "amount",
          "type": "uint256"
        }
      ],
      "name": "ClaimWinWine",
      "type": "event"
    },
    {
      "anonymous": false,
      "inputs": [
        {
          "indexed": true,
          "internalType": "address",
          "name": "previousOwner",
          "type": "address"
        },
        {
          "indexed": true,
          "internalType": "address",
          "name": "newOwner",
          "type": "address"
        }
      ],
      "name": "OwnershipTransferred",
      "type": "event"
    },
    {
      "anonymous": false,
      "inputs": [
        {
          "indexed": false,
          "internalType": "address",
          "name": "user",
          "type": "address"
        },
        {
          "indexed": false,
          "internalType": "uint256[]",
          "name": "bottleIds",
          "type": "uint256[]"
        }
      ],
      "name": "ParticipateInWpLottery",
      "type": "event"
    },
    {
      "anonymous": false,
      "inputs": [
        {
          "indexed": false,
          "internalType": "uint256[]",
          "name": "amountsBeer",
          "type": "uint256[]"
        }
      ],
      "name": "SetAmountBeer",
      "type": "event"
    },
    {
      "anonymous": false,
      "inputs": [
        {
          "indexed": false,
          "internalType": "uint256[]",
          "name": "amountsRum",
          "type": "uint256[]"
        }
      ],
      "name": "SetAmountRum",
      "type": "event"
    },
    {
      "anonymous": false,
      "inputs": [
        {
          "indexed": false,
          "internalType": "uint256[]",
          "name": "amountsWine",
          "type": "uint256[]"
        }
      ],
      "name": "SetAmountWine",
      "type": "event"
    },
    {
      "anonymous": false,
      "inputs": [
        {
          "indexed": false,
          "internalType": "uint256",
          "name": "amount",
          "type": "uint256"
        }
      ],
      "name": "SetAmountWp",
      "type": "event"
    },
    {
      "anonymous": false,
      "inputs": [
        {
          "indexed": false,
          "internalType": "address",
          "name": "winnerWp",
          "type": "address"
        }
      ],
      "name": "WinnerWp",
      "type": "event"
    },
    {
      "inputs": [],
      "name": "amount",
      "outputs": [
        {
          "internalType": "uint256",
          "name": "",
          "type": "uint256"
        }
      ],
      "stateMutability": "view",
      "type": "function"
    },
    {
      "inputs": [
        {
          "internalType": "uint256",
          "name": "",
          "type": "uint256"
        }
      ],
      "name": "amountsBeer",
      "outputs": [
        {
          "internalType": "uint256",
          "name": "",
          "type": "uint256"
        }
      ],
      "stateMutability": "view",
      "type": "function"
    },
    {
      "inputs": [
        {
          "internalType": "uint256",
          "name": "",
          "type": "uint256"
        }
      ],
      "name": "amountsRum",
      "outputs": [
        {
          "internalType": "uint256",
          "name": "",
          "type": "uint256"
        }
      ],
      "stateMutability": "view",
      "type": "function"
    },
    {
      "inputs": [
        {
          "internalType": "uint256",
          "name": "",
          "type": "uint256"
        }
      ],
      "name": "amountsWine",
      "outputs": [
        {
          "internalType": "uint256",
          "name": "",
          "type": "uint256"
        }
      ],
      "stateMutability": "view",
      "type": "function"
    },
    {
      "inputs": [
        {
          "internalType": "uint256",
          "name": "_random",
          "type": "uint256"
        }
      ],
      "name": "calcWinnerWp",
      "outputs": [],
      "stateMutability": "nonpayable",
      "type": "function"
    },
    {
      "inputs": [
        {
          "internalType": "uint256",
          "name": "_number",
          "type": "uint256"
        },
        {
          "internalType": "uint256[]",
          "name": "_random",
          "type": "uint256[]"
        }
      ],
      "name": "calcWinnersBeer",
      "outputs": [],
      "stateMutability": "nonpayable",
      "type": "function"
    },
    {
      "inputs": [
        {
          "internalType": "uint256",
          "name": "_number",
          "type": "uint256"
        },
        {
          "internalType": "uint256[]",
          "name": "_random",
          "type": "uint256[]"
        }
      ],
      "name": "calcWinnersRum",
      "outputs": [],
      "stateMutability": "nonpayable",
      "type": "function"
    },
    {
      "inputs": [
        {
          "internalType": "uint256",
          "name": "_number",
          "type": "uint256"
        },
        {
          "internalType": "uint256[]",
          "name": "_random",
          "type": "uint256[]"
        }
      ],
      "name": "calcWinnersWine",
      "outputs": [],
      "stateMutability": "nonpayable",
      "type": "function"
    },
    {
      "inputs": [
        {
          "internalType": "uint256",
          "name": "_number",
          "type": "uint256"
        },
        {
          "internalType": "uint256",
          "name": "_tokenId",
          "type": "uint256"
        }
      ],
      "name": "claimWinBeer",
      "outputs": [],
      "stateMutability": "nonpayable",
      "type": "function"
    },
    {
      "inputs": [
        {
          "internalType": "uint256",
          "name": "_number",
          "type": "uint256"
        },
        {
          "internalType": "uint256",
          "name": "_tokenId",
          "type": "uint256"
        }
      ],
      "name": "claimWinRum",
      "outputs": [],
      "stateMutability": "nonpayable",
      "type": "function"
    },
    {
      "inputs": [
        {
          "internalType": "uint256",
          "name": "_number",
          "type": "uint256"
        },
        {
          "internalType": "uint256",
          "name": "_tokenId",
          "type": "uint256"
        }
      ],
      "name": "claimWinWine",
      "outputs": [],
      "stateMutability": "nonpayable",
      "type": "function"
    },
    {
      "inputs": [],
      "name": "nftBox",
      "outputs": [
        {
          "internalType": "contract INFTBox",
          "name": "",
          "type": "address"
        }
      ],
      "stateMutability": "view",
      "type": "function"
    },
    {
      "inputs": [],
      "name": "nftCollection",
      "outputs": [
        {
          "internalType": "contract INFTBottle",
          "name": "",
          "type": "address"
        }
      ],
      "stateMutability": "view",
      "type": "function"
    },
    {
      "inputs": [],
      "name": "owner",
      "outputs": [
        {
          "internalType": "address",
          "name": "",
          "type": "address"
        }
      ],
      "stateMutability": "view",
      "type": "function"
    },
    {
      "inputs": [
        {
          "internalType": "uint256",
          "name": "",
          "type": "uint256"
        }
      ],
      "name": "participantsWp",
      "outputs": [
        {
          "internalType": "address",
          "name": "",
          "type": "address"
        }
      ],
      "stateMutability": "view",
      "type": "function"
    },
    {
      "inputs": [
        {
          "internalType": "uint256[]",
          "name": "_bottleIds",
          "type": "uint256[]"
        }
      ],
      "name": "participateInWpLottery",
      "outputs": [],
      "stateMutability": "nonpayable",
      "type": "function"
    },
    {
      "inputs": [],
      "name": "renounceOwnership",
      "outputs": [],
      "stateMutability": "nonpayable",
      "type": "function"
    },
    {
      "inputs": [],
      "name": "rewardsToken",
      "outputs": [
        {
          "internalType": "contract IERC20",
          "name": "",
          "type": "address"
        }
      ],
      "stateMutability": "view",
      "type": "function"
    },
    {
      "inputs": [
        {
          "internalType": "uint256[]",
          "name": "_amountsBeer",
          "type": "uint256[]"
        }
      ],
      "name": "setAmountBeer",
      "outputs": [],
      "stateMutability": "nonpayable",
      "type": "function"
    },
    {
      "inputs": [
        {
          "internalType": "uint256[]",
          "name": "_amountsRum",
          "type": "uint256[]"
        }
      ],
      "name": "setAmountRum",
      "outputs": [],
      "stateMutability": "nonpayable",
      "type": "function"
    },
    {
      "inputs": [
        {
          "internalType": "uint256[]",
          "name": "_amountsWine",
          "type": "uint256[]"
        }
      ],
      "name": "setAmountWine",
      "outputs": [],
      "stateMutability": "nonpayable",
      "type": "function"
    },
    {
      "inputs": [
        {
          "internalType": "uint256",
          "name": "_amount",
          "type": "uint256"
        }
      ],
      "name": "setAmountWp",
      "outputs": [],
      "stateMutability": "nonpayable",
      "type": "function"
    },
    {
      "inputs": [],
      "name": "start",
      "outputs": [
        {
          "internalType": "uint256",
          "name": "",
          "type": "uint256"
        }
      ],
      "stateMutability": "view",
      "type": "function"
    },
    {
      "inputs": [
        {
          "internalType": "address",
          "name": "newOwner",
          "type": "address"
        }
      ],
      "name": "transferOwnership",
      "outputs": [],
      "stateMutability": "nonpayable",
      "type": "function"
    },
    {
      "inputs": [],
      "name": "winnerWp",
      "outputs": [
        {
          "internalType": "address",
          "name": "",
          "type": "address"
        }
      ],
      "stateMutability": "view",
      "type": "function"
    },
    {
      "inputs": [
        {
          "internalType": "uint256",
          "name": "",
          "type": "uint256"
        },
        {
          "internalType": "uint256",
          "name": "",
          "type": "uint256"
        }
      ],
      "name": "winnersBeer",
      "outputs": [
        {
          "internalType": "bool",
          "name": "",
          "type": "bool"
        }
      ],
      "stateMutability": "view",
      "type": "function"
    },
    {
      "inputs": [
        {
          "internalType": "uint256",
          "name": "",
          "type": "uint256"
        },
        {
          "internalType": "uint256",
          "name": "",
          "type": "uint256"
        }
      ],
      "name": "winnersRum",
      "outputs": [
        {
          "internalType": "bool",
          "name": "",
          "type": "bool"
        }
      ],
      "stateMutability": "view",
      "type": "function"
    },
    {
      "inputs": [
        {
          "internalType": "uint256",
          "name": "",
          "type": "uint256"
        },
        {
          "internalType": "uint256",
          "name": "",
          "type": "uint256"
        }
      ],
      "name": "winnersWine",
      "outputs": [
        {
          "internalType": "bool",
          "name": "",
          "type": "bool"
        }
      ],
      "stateMutability": "view",
      "type": "function"
    }
  ],
  "bytecode": "0x60e06040523480156200001157600080fd5b5060405162001b1c38038062001b1c8339810160408190526200003491620000ba565b6200003f336200006a565b426001556001600160601b0319606093841b811660a05290831b8116608052911b1660c05262000127565b600080546001600160a01b038381166001600160a01b0319831681178455604051919092169283917f8be0079c531659141344cd1fd0a4f28419497f9722a3daafe3b4186f6b6457e09190a35050565b600080600060608486031215620000d057600080fd5b8351620000dd816200010e565b6020850151909350620000f0816200010e565b604085015190925062000103816200010e565b809150509250925092565b6001600160a01b03811681146200012457600080fd5b50565b60805160601c60a05160601c60c05160601c61196f620001ad600039600081816103f4015281816107c0015281816109190152610f0c01526000818161025e0152818161044901528181610a5101528181610c6a0152610ff40152600081816103a70152818161054d015281816106e201528181610b4c0152610d65015261196f6000f3fe608060405234801561001057600080fd5b50600436106101545760003560e01c80630633f4951461015957806312478c4a1461016e5780631ecd4dce14610181578063246e875a146101945780632aea6458146101c757806337b3fe1014610205578063441b096d146102335780634d924995146102465780636588103b14610259578063715018a61461028d57806376bcaace14610295578063843615a7146102a85780638da5cb5b146102bb578063928b4b69146102c3578063a62f86ab146102f1578063aa8c217c14610311578063ab0b43221461031a578063b39d9c2b1461032d578063be9a655514610340578063bf46138214610349578063c1cb47bd1461035c578063ca53fa8e1461036f578063cb2263a61461038f578063d1af0c7d146103a2578063e0d6205c146103c9578063e9ec567d146103dc578063ef86d548146103ef578063f2fde38b14610416575b600080fd5b61016c6101673660046116c8565b610429565b005b61016c61017c3660046115e8565b6105c2565b61016c61018f36600461164b565b610648565b6101b46101a236600461164b565b60086020526000908152604090205481565b6040519081526020015b60405180910390f35b6101f56101d53660046116c8565b600960209081526000928352604080842090915290825290205460ff1681565b60405190151581526020016101be565b6101f56102133660046116c8565b600760209081526000928352604080842090915290825290205460ff1681565b61016c61024136600461167d565b610747565b61016c61025436600461167d565b6108a0565b6102807f000000000000000000000000000000000000000000000000000000000000000081565b6040516101be9190611757565b61016c6109f3565b6102806102a336600461164b565b610a07565b61016c6102b63660046116c8565b610a31565b610280610bb5565b6101f56102d13660046116c8565b600560209081526000928352604080842090915290825290205460ff1681565b6101b46102ff36600461164b565b60066020526000908152604090205481565b6101b460025481565b61016c6103283660046115e8565b610bc4565b61016c61033b3660046116c8565b610c4a565b6101b460015481565b61016c6103573660046115e8565b610dce565b600354610280906001600160a01b031681565b6101b461037d36600461164b565b600a6020526000908152604090205481565b61016c61039d36600461164b565b610e54565b6102807f000000000000000000000000000000000000000000000000000000000000000081565b61016c6103d736600461167d565b610e97565b61016c6103ea3660046115e8565b610fdb565b6102807f000000000000000000000000000000000000000000000000000000000000000081565b61016c6104243660046115ae565b61118b565b6040516331a9108f60e11b81526004810182905233906001600160a01b037f00000000000000000000000000000000000000000000000000000000000000001690636352211e9060240160206040518083038186803b15801561048b57600080fd5b505afa15801561049f573d6000803e3d6000fd5b505050506040513d601f19601f820116820180604052508101906104c391906115cb565b6001600160a01b0316146104f25760405162461bcd60e51b81526004016104e99061182e565b60405180910390fd5b600082815260056020908152604080832084845290915290205460ff1615156001146105305760405162461bcd60e51b81526004016104e9906117f9565b600082815260066020526040902054610575906001600160a01b037f000000000000000000000000000000000000000000000000000000000000000016903390611204565b600082815260066020526040908190205490517f7404fbcfadb24f8e4dcbd0b8ec9f422a5d8af0cc0f1a02f3776bdfc5bcf06112916105b691339190611799565b60405180910390a15050565b6105ca61125f565b60005b6005811015610616578282828181106105e8576105e861190e565b6000848152600a6020908152604090912091029290920135909155508061060e816118bb565b9150506105cd565b507f4a9bb6d9779c029dab4a88cba81da7dad4dc24f898154b950d6a3fcf74a727ed82826040516105b69291906117b2565b61065061125f565b600044428343604051602001610669949392919061173c565b60408051601f19818403018152919052805160209091012060045490915060009061069490836118d6565b90506000600482815481106106ab576106ab61190e565b600091825260209091200154600380546001600160a01b0319166001600160a01b0392831690811790915560025490925061070a917f000000000000000000000000000000000000000000000000000000000000000016908390611204565b7f7d32d19b3f70ee14279fc10c2afd33bc0a239ae5ae42248a6036a128291e317d816040516107399190611757565b60405180910390a150505050565b61074f61125f565b60005b8181101561089a57600044428585858181106107705761077061190e565b905060200201354360405160200161078b949392919061173c565b60408051808303601f19018152908290528051602090910120639166342f60e01b8252600260048301529150600090612710907f00000000000000000000000000000000000000000000000000000000000000006001600160a01b031690639166342f9060240160206040518083038186803b15801561080a57600080fd5b505afa15801561081e573d6000803e3d6000fd5b505050506040513d601f19601f820116820180604052508101906108429190611664565b61084c9190611878565b61085690836118d6565b61086290612711611860565b600087815260076020908152604080832093835292905220805460ff1916600117905550819050610892816118bb565b915050610752565b50505050565b6108a861125f565b60005b8181101561089a57600044428585858181106108c9576108c961190e565b90506020020135436040516020016108e4949392919061173c565b60408051808303601f19018152908290528051602090910120639166342f60e01b8252600360048301529150600090613e80907f00000000000000000000000000000000000000000000000000000000000000006001600160a01b031690639166342f9060240160206040518083038186803b15801561096357600080fd5b505afa158015610977573d6000803e3d6000fd5b505050506040513d601f19601f8201168201806040525081019061099b9190611664565b6109a59190611878565b6109af90836118d6565b6109bb90613e81611860565b600087815260096020908152604080832093835292905220805460ff19166001179055508190506109eb816118bb565b9150506108ab565b6109fb61125f565b610a0560006112be565b565b60048181548110610a1757600080fd5b6000918252602090912001546001600160a01b0316905081565b6040516331a9108f60e11b81526004810182905233906001600160a01b037f00000000000000000000000000000000000000000000000000000000000000001690636352211e9060240160206040518083038186803b158015610a9357600080fd5b505afa158015610aa7573d6000803e3d6000fd5b505050506040513d601f19601f82011682018060405250810190610acb91906115cb565b6001600160a01b031614610af15760405162461bcd60e51b81526004016104e99061182e565b600082815260096020908152604080832084845290915290205460ff161515600114610b2f5760405162461bcd60e51b81526004016104e9906117f9565b6000828152600a6020526040902054610b74906001600160a01b037f000000000000000000000000000000000000000000000000000000000000000016903390611204565b6000828152600a6020526040908190205490517fd97afde7f17a1d4065c2419784e21c5b74093e3be9aa182adf5f43f303ac12e5916105b691339190611799565b6000546001600160a01b031690565b610bcc61125f565b60005b6005811015610c1857828282818110610bea57610bea61190e565b6000848152600660209081526040909120910292909201359091555080610c10816118bb565b915050610bcf565b507f1edf33460631a9aa6d44183efaec17fc40ea2d08062b1397700aed050c7c582382826040516105b69291906117b2565b6040516331a9108f60e11b81526004810182905233906001600160a01b037f00000000000000000000000000000000000000000000000000000000000000001690636352211e9060240160206040518083038186803b158015610cac57600080fd5b505afa158015610cc0573d6000803e3d6000fd5b505050506040513d601f19601f82011682018060405250810190610ce491906115cb565b6001600160a01b031614610d0a5760405162461bcd60e51b81526004016104e99061182e565b600082815260076020908152604080832084845290915290205460ff161515600114610d485760405162461bcd60e51b81526004016104e9906117f9565b600082815260086020526040902054610d8d906001600160a01b037f000000000000000000000000000000000000000000000000000000000000000016903390611204565b600082815260086020526040908190205490517f0ec4abc7ee10a400257bd887a7e9ad3958efc1893fd0bb765bafabb8b48ceceb916105b691339190611799565b610dd661125f565b60005b6005811015610e2257828282818110610df457610df461190e565b6000848152600860209081526040909120910292909201359091555080610e1a816118bb565b915050610dd9565b507f32ea5f202f82b099a0ac8952ccb1cde2403db995136ad35866d6841c418cc89182826040516105b69291906117b2565b610e5c61125f565b60028190556040518181527ff3641fbe2c59b77255135e2504e74a8d254798703afbb3b7e27729072aae85339060200160405180910390a150565b610e9f61125f565b60005b8181101561089a5760004442858585818110610ec057610ec061190e565b9050602002013543604051602001610edb949392919061173c565b60408051808303601f19018152908290528051602090910120639166342f60e01b82526001600483015291506000907f00000000000000000000000000000000000000000000000000000000000000006001600160a01b031690639166342f9060240160206040518083038186803b158015610f5657600080fd5b505afa158015610f6a573d6000803e3d6000fd5b505050506040513d601f19601f82011682018060405250810190610f8e9190611664565b610f9890836118d6565b610fa3906001611860565b600087815260056020908152604080832093835292905220805460ff1916600117905550819050610fd3816118bb565b915050610ea2565b338160005b8181101561115757826001600160a01b03167f00000000000000000000000000000000000000000000000000000000000000006001600160a01b0316636352211e8787858181106110335761103361190e565b905060200201356040518263ffffffff1660e01b815260040161105891815260200190565b60206040518083038186803b15801561107057600080fd5b505afa158015611084573d6000803e3d6000fd5b505050506040513d601f19601f820116820180604052508101906110a891906115cb565b6001600160a01b0316146110fa5760405162461bcd60e51b81526020600482015260196024820152784c6f74746572793a204e6f7420796f757220746f6b656e732160381b60448201526064016104e9565b600480546001810182556000919091527f8a35acfbc15ff81a39ae7d344fd709f28e8600b4aa8c65c6b64bfe7fe36bd19b0180546001600160a01b0319166001600160a01b0385161790558061114f816118bb565b915050610fe0565b507f4309fc35588d073c3b03d3af25b098ca5d361a0346f2eb3b89913e6d4ae730248285856040516107399392919061176b565b61119361125f565b6001600160a01b0381166111f85760405162461bcd60e51b815260206004820152602660248201527f4f776e61626c653a206e6577206f776e657220697320746865207a65726f206160448201526564647265737360d01b60648201526084016104e9565b611201816112be565b50565b61125a8363a9059cbb60e01b8484604051602401611223929190611799565b60408051601f198184030181529190526020810180516001600160e01b03166001600160e01b03199093169290921790915261130e565b505050565b33611268610bb5565b6001600160a01b031614610a055760405162461bcd60e51b815260206004820181905260248201527f4f776e61626c653a2063616c6c6572206973206e6f7420746865206f776e657260448201526064016104e9565b600080546001600160a01b038381166001600160a01b0319831681178455604051919092169283917f8be0079c531659141344cd1fd0a4f28419497f9722a3daafe3b4186f6b6457e09190a35050565b6000611363826040518060400160405280602081526020017f5361666545524332303a206c6f772d6c6576656c2063616c6c206661696c6564815250856001600160a01b03166113e09092919063ffffffff16565b80519091501561125a57808060200190518101906113819190611629565b61125a5760405162461bcd60e51b815260206004820152602a60248201527f5361666545524332303a204552433230206f7065726174696f6e20646964206e6044820152691bdd081cdd58d8d9595960b21b60648201526084016104e9565b60606113ef84846000856113f9565b90505b9392505050565b60608247101561145a5760405162461bcd60e51b815260206004820152602660248201527f416464726573733a20696e73756666696369656e742062616c616e636520666f6044820152651c8818d85b1b60d21b60648201526084016104e9565b6001600160a01b0385163b6114b15760405162461bcd60e51b815260206004820152601d60248201527f416464726573733a2063616c6c20746f206e6f6e2d636f6e747261637400000060448201526064016104e9565b600080866001600160a01b031685876040516114cd9190611720565b60006040518083038185875af1925050503d806000811461150a576040519150601f19603f3d011682016040523d82523d6000602084013e61150f565b606091505b509150915061151f82828661152a565b979650505050505050565b606083156115395750816113f2565b8251156115495782518084602001fd5b8160405162461bcd60e51b81526004016104e991906117c6565b60008083601f84011261157557600080fd5b5081356001600160401b0381111561158c57600080fd5b6020830191508360208260051b85010111156115a757600080fd5b9250929050565b6000602082840312156115c057600080fd5b81356113f281611924565b6000602082840312156115dd57600080fd5b81516113f281611924565b600080602083850312156115fb57600080fd5b82356001600160401b0381111561161157600080fd5b61161d85828601611563565b90969095509350505050565b60006020828403121561163b57600080fd5b815180151581146113f257600080fd5b60006020828403121561165d57600080fd5b5035919050565b60006020828403121561167657600080fd5b5051919050565b60008060006040848603121561169257600080fd5b8335925060208401356001600160401b038111156116af57600080fd5b6116bb86828701611563565b9497909650939450505050565b600080604083850312156116db57600080fd5b50508035926020909101359150565b81835260006001600160fb1b0383111561170357600080fd5b8260051b8083602087013760009401602001938452509192915050565b6000825161173281846020870161188f565b9190910192915050565b93845260208401929092526040830152606082015260800190565b6001600160a01b0391909116815260200190565b6001600160a01b038416815260406020820181905260009061179090830184866116ea565b95945050505050565b6001600160a01b03929092168252602082015260400190565b6020815260006113ef6020830184866116ea565b60208152600082518060208401526117e581604085016020870161188f565b601f01601f19169190910160400192915050565b6020808252601b908201527a2637ba3a32b93c9d102cb7ba9030b932903737ba103bb4b73732b960291b604082015260600190565b6020808252601890820152772637ba3a32b93c9d1024b731b7b93932b1ba1037bbb732b960411b604082015260600190565b60008219821115611873576118736118f8565b500190565b60008282101561188a5761188a6118f8565b500390565b60005b838110156118aa578181015183820152602001611892565b8381111561089a5750506000910152565b60006000198214156118cf576118cf6118f8565b5060010190565b6000826118f357634e487b7160e01b600052601260045260246000fd5b500690565b634e487b7160e01b600052601160045260246000fd5b634e487b7160e01b600052603260045260246000fd5b6001600160a01b038116811461120157600080fdfea26469706673582212208daeb469d51f7bb6fc19ce7ded355195f5eb4217b5827e6dac7d38fbb05a319564736f6c63430008070033",
  "linkReferences": {},
  "deployedLinkReferences": {}
}