{
  "_format": "hh-sol-artifact-1",
  "contractName": "NFTBox",
  "sourceName": "contracts/NFTBox.sol",
  "abi": [
    {
      "inputs": [
        {
          "internalType": "string",
          "name": "_baseUri",
          "type": "string"
        },
        {
          "internalType": "string",
          "name": "_name",
          "type": "string"
        },
        {
          "internalType": "string",
          "name": "_symbol",
          "type": "string"
        }
      ],
      "stateMutability": "nonpayable",
      "type": "constructor"
    },
    {
      "anonymous": false,
      "inputs": [
        {
          "indexed": false,
          "internalType": "address[]",
          "name": "users",
          "type": "address[]"
        }
      ],
      "name": "AddWhitelist",
      "type": "event"
    },
    {
      "anonymous": false,
      "inputs": [
        {
          "indexed": true,
          "internalType": "address",
          "name": "owner",
          "type": "address"
        },
        {
          "indexed": true,
          "internalType": "address",
          "name": "approved",
          "type": "address"
        },
        {
          "indexed": true,
          "internalType": "uint256",
          "name": "tokenId",
          "type": "uint256"
        }
      ],
      "name": "Approval",
      "type": "event"
    },
    {
      "anonymous": false,
      "inputs": [
        {
          "indexed": true,
          "internalType": "address",
          "name": "owner",
          "type": "address"
        },
        {
          "indexed": true,
          "internalType": "address",
          "name": "operator",
          "type": "address"
        },
        {
          "indexed": false,
          "internalType": "bool",
          "name": "approved",
          "type": "bool"
        }
      ],
      "name": "ApprovalForAll",
      "type": "event"
    },
    {
      "anonymous": false,
      "inputs": [
        {
          "indexed": false,
          "internalType": "address",
          "name": "msgSender",
          "type": "address"
        },
        {
          "indexed": false,
          "internalType": "uint256",
          "name": "lastTokenIdBox",
          "type": "uint256"
        }
      ],
      "name": "BuyBox",
      "type": "event"
    },
    {
      "anonymous": false,
      "inputs": [
        {
          "indexed": true,
          "internalType": "address",
          "name": "previousOwner",
          "type": "address"
        },
        {
          "indexed": true,
          "internalType": "address",
          "name": "newOwner",
          "type": "address"
        }
      ],
      "name": "OwnershipTransferred",
      "type": "event"
    },
    {
      "anonymous": false,
      "inputs": [
        {
          "indexed": false,
          "internalType": "bool",
          "name": "activePresaleTime",
          "type": "bool"
        },
        {
          "indexed": false,
          "internalType": "bool",
          "name": "activeSaleTime",
          "type": "bool"
        }
      ],
      "name": "SetActiveTime",
      "type": "event"
    },
    {
      "anonymous": false,
      "inputs": [
        {
          "indexed": false,
          "internalType": "string",
          "name": "newBaseURI",
          "type": "string"
        }
      ],
      "name": "SetBaseURI",
      "type": "event"
    },
    {
      "anonymous": false,
      "inputs": [
        {
          "indexed": false,
          "internalType": "uint256",
          "name": "typeBox",
          "type": "uint256"
        },
        {
          "indexed": false,
          "internalType": "uint256",
          "name": "presalePrice",
          "type": "uint256"
        },
        {
          "indexed": false,
          "internalType": "uint256",
          "name": "salePrice",
          "type": "uint256"
        },
        {
          "indexed": false,
          "internalType": "uint256",
          "name": "tokenIdBox",
          "type": "uint256"
        },
        {
          "indexed": false,
          "internalType": "uint256",
          "name": "lastTokenIdBox",
          "type": "uint256"
        }
      ],
      "name": "SetBoxInfo",
      "type": "event"
    },
    {
      "anonymous": false,
      "inputs": [
        {
          "indexed": false,
          "internalType": "uint256",
          "name": "limitBox",
          "type": "uint256"
        }
      ],
      "name": "SetLimitBox",
      "type": "event"
    },
    {
      "anonymous": false,
      "inputs": [
        {
          "indexed": false,
          "internalType": "uint256",
          "name": "presaleTime",
          "type": "uint256"
        },
        {
          "indexed": false,
          "internalType": "uint256",
          "name": "saleTime",
          "type": "uint256"
        }
      ],
      "name": "SetTime",
      "type": "event"
    },
    {
      "anonymous": false,
      "inputs": [
        {
          "indexed": true,
          "internalType": "address",
          "name": "from",
          "type": "address"
        },
        {
          "indexed": true,
          "internalType": "address",
          "name": "to",
          "type": "address"
        },
        {
          "indexed": true,
          "internalType": "uint256",
          "name": "tokenId",
          "type": "uint256"
        }
      ],
      "name": "Transfer",
      "type": "event"
    },
    {
      "anonymous": false,
      "inputs": [
        {
          "indexed": false,
          "internalType": "uint256",
          "name": "amount",
          "type": "uint256"
        }
      ],
      "name": "Withdraw",
      "type": "event"
    },
    {
      "anonymous": false,
      "inputs": [],
      "name": "WithdrawAll",
      "type": "event"
    },
    {
      "inputs": [],
      "name": "activePresaleTime",
      "outputs": [
        {
          "internalType": "bool",
          "name": "",
          "type": "bool"
        }
      ],
      "stateMutability": "view",
      "type": "function"
    },
    {
      "inputs": [],
      "name": "activeSaleTime",
      "outputs": [
        {
          "internalType": "bool",
          "name": "",
          "type": "bool"
        }
      ],
      "stateMutability": "view",
      "type": "function"
    },
    {
      "inputs": [
        {
          "internalType": "address[]",
          "name": "_users",
          "type": "address[]"
        }
      ],
      "name": "addWhitelist",
      "outputs": [],
      "stateMutability": "nonpayable",
      "type": "function"
    },
    {
      "inputs": [],
      "name": "amountBoxBeer",
      "outputs": [
        {
          "internalType": "uint256",
          "name": "",
          "type": "uint256"
        }
      ],
      "stateMutability": "view",
      "type": "function"
    },
    {
      "inputs": [],
      "name": "amountBoxRum",
      "outputs": [
        {
          "internalType": "uint256",
          "name": "",
          "type": "uint256"
        }
      ],
      "stateMutability": "view",
      "type": "function"
    },
    {
      "inputs": [],
      "name": "amountBoxWine",
      "outputs": [
        {
          "internalType": "uint256",
          "name": "",
          "type": "uint256"
        }
      ],
      "stateMutability": "view",
      "type": "function"
    },
    {
      "inputs": [
        {
          "internalType": "address",
          "name": "to",
          "type": "address"
        },
        {
          "internalType": "uint256",
          "name": "tokenId",
          "type": "uint256"
        }
      ],
      "name": "approve",
      "outputs": [],
      "stateMutability": "nonpayable",
      "type": "function"
    },
    {
      "inputs": [
        {
          "internalType": "address",
          "name": "owner",
          "type": "address"
        }
      ],
      "name": "balanceOf",
      "outputs": [
        {
          "internalType": "uint256",
          "name": "",
          "type": "uint256"
        }
      ],
      "stateMutability": "view",
      "type": "function"
    },
    {
      "inputs": [
        {
          "internalType": "uint256",
          "name": "_amount",
          "type": "uint256"
        },
        {
          "internalType": "uint256",
          "name": "_typeBox",
          "type": "uint256"
        }
      ],
      "name": "buyBox",
      "outputs": [],
      "stateMutability": "payable",
      "type": "function"
    },
    {
      "inputs": [
        {
          "internalType": "uint256",
          "name": "tokenId",
          "type": "uint256"
        }
      ],
      "name": "getApproved",
      "outputs": [
        {
          "internalType": "address",
          "name": "",
          "type": "address"
        }
      ],
      "stateMutability": "view",
      "type": "function"
    },
    {
      "inputs": [
        {
          "internalType": "uint256",
          "name": "_typeBox",
          "type": "uint256"
        }
      ],
      "name": "howManyBoxes",
      "outputs": [
        {
          "internalType": "uint256",
          "name": "boxes",
          "type": "uint256"
        }
      ],
      "stateMutability": "view",
      "type": "function"
    },
    {
      "inputs": [
        {
          "internalType": "address",
          "name": "owner",
          "type": "address"
        },
        {
          "internalType": "address",
          "name": "operator",
          "type": "address"
        }
      ],
      "name": "isApprovedForAll",
      "outputs": [
        {
          "internalType": "bool",
          "name": "",
          "type": "bool"
        }
      ],
      "stateMutability": "view",
      "type": "function"
    },
    {
      "inputs": [],
      "name": "limitBox",
      "outputs": [
        {
          "internalType": "uint256",
          "name": "",
          "type": "uint256"
        }
      ],
      "stateMutability": "view",
      "type": "function"
    },
    {
      "inputs": [],
      "name": "name",
      "outputs": [
        {
          "internalType": "string",
          "name": "",
          "type": "string"
        }
      ],
      "stateMutability": "view",
      "type": "function"
    },
    {
      "inputs": [
        {
          "internalType": "uint256",
          "name": "",
          "type": "uint256"
        }
      ],
      "name": "nftBoxes",
      "outputs": [
        {
          "internalType": "uint256",
          "name": "presalePrice",
          "type": "uint256"
        },
        {
          "internalType": "uint256",
          "name": "salePrice",
          "type": "uint256"
        },
        {
          "internalType": "uint256",
          "name": "tokenIdBox",
          "type": "uint256"
        },
        {
          "internalType": "uint256",
          "name": "lastTokenIdBox",
          "type": "uint256"
        }
      ],
      "stateMutability": "view",
      "type": "function"
    },
    {
      "inputs": [],
      "name": "owner",
      "outputs": [
        {
          "internalType": "address",
          "name": "",
          "type": "address"
        }
      ],
      "stateMutability": "view",
      "type": "function"
    },
    {
      "inputs": [
        {
          "internalType": "uint256",
          "name": "tokenId",
          "type": "uint256"
        }
      ],
      "name": "ownerOf",
      "outputs": [
        {
          "internalType": "address",
          "name": "",
          "type": "address"
        }
      ],
      "stateMutability": "view",
      "type": "function"
    },
    {
      "inputs": [],
      "name": "pendingWithdrawal",
      "outputs": [
        {
          "internalType": "uint256",
          "name": "",
          "type": "uint256"
        }
      ],
      "stateMutability": "view",
      "type": "function"
    },
    {
      "inputs": [],
      "name": "presaleTime",
      "outputs": [
        {
          "internalType": "uint256",
          "name": "",
          "type": "uint256"
        }
      ],
      "stateMutability": "view",
      "type": "function"
    },
    {
      "inputs": [],
      "name": "renounceOwnership",
      "outputs": [],
      "stateMutability": "nonpayable",
      "type": "function"
    },
    {
      "inputs": [
        {
          "internalType": "address",
          "name": "from",
          "type": "address"
        },
        {
          "internalType": "address",
          "name": "to",
          "type": "address"
        },
        {
          "internalType": "uint256",
          "name": "tokenId",
          "type": "uint256"
        }
      ],
      "name": "safeTransferFrom",
      "outputs": [],
      "stateMutability": "nonpayable",
      "type": "function"
    },
    {
      "inputs": [
        {
          "internalType": "address",
          "name": "from",
          "type": "address"
        },
        {
          "internalType": "address",
          "name": "to",
          "type": "address"
        },
        {
          "internalType": "uint256",
          "name": "tokenId",
          "type": "uint256"
        },
        {
          "internalType": "bytes",
          "name": "data",
          "type": "bytes"
        }
      ],
      "name": "safeTransferFrom",
      "outputs": [],
      "stateMutability": "nonpayable",
      "type": "function"
    },
    {
      "inputs": [],
      "name": "saleTime",
      "outputs": [
        {
          "internalType": "uint256",
          "name": "",
          "type": "uint256"
        }
      ],
      "stateMutability": "view",
      "type": "function"
    },
    {
      "inputs": [
        {
          "internalType": "bool",
          "name": "_activePresaleTime",
          "type": "bool"
        },
        {
          "internalType": "bool",
          "name": "_activeSaleTime",
          "type": "bool"
        }
      ],
      "name": "setActiveTime",
      "outputs": [],
      "stateMutability": "nonpayable",
      "type": "function"
    },
    {
      "inputs": [
        {
          "internalType": "address",
          "name": "operator",
          "type": "address"
        },
        {
          "internalType": "bool",
          "name": "approved",
          "type": "bool"
        }
      ],
      "name": "setApprovalForAll",
      "outputs": [],
      "stateMutability": "nonpayable",
      "type": "function"
    },
    {
      "inputs": [
        {
          "internalType": "string",
          "name": "_newBaseURI",
          "type": "string"
        }
      ],
      "name": "setBaseURI",
      "outputs": [],
      "stateMutability": "nonpayable",
      "type": "function"
    },
    {
      "inputs": [
        {
          "internalType": "uint256",
          "name": "_typeBox",
          "type": "uint256"
        },
        {
          "internalType": "uint256",
          "name": "_amountNftBox",
          "type": "uint256"
        },
        {
          "internalType": "uint256",
          "name": "_presalePrice",
          "type": "uint256"
        },
        {
          "internalType": "uint256",
          "name": "_salePrice",
          "type": "uint256"
        },
        {
          "internalType": "uint256",
          "name": "_tokenIdBox",
          "type": "uint256"
        },
        {
          "internalType": "uint256",
          "name": "_lastTokenIdBox",
          "type": "uint256"
        }
      ],
      "name": "setBoxInfo",
      "outputs": [],
      "stateMutability": "nonpayable",
      "type": "function"
    },
    {
      "inputs": [
        {
          "internalType": "uint256",
          "name": "_limitBox",
          "type": "uint256"
        }
      ],
      "name": "setLimitBox",
      "outputs": [],
      "stateMutability": "nonpayable",
      "type": "function"
    },
    {
      "inputs": [
        {
          "internalType": "uint256",
          "name": "_presaleTime",
          "type": "uint256"
        },
        {
          "internalType": "uint256",
          "name": "_saleTime",
          "type": "uint256"
        }
      ],
      "name": "setTime",
      "outputs": [],
      "stateMutability": "nonpayable",
      "type": "function"
    },
    {
      "inputs": [],
      "name": "start",
      "outputs": [
        {
          "internalType": "uint256",
          "name": "",
          "type": "uint256"
        }
      ],
      "stateMutability": "view",
      "type": "function"
    },
    {
      "inputs": [
        {
          "internalType": "bytes4",
          "name": "interfaceId",
          "type": "bytes4"
        }
      ],
      "name": "supportsInterface",
      "outputs": [
        {
          "internalType": "bool",
          "name": "",
          "type": "bool"
        }
      ],
      "stateMutability": "view",
      "type": "function"
    },
    {
      "inputs": [],
      "name": "symbol",
      "outputs": [
        {
          "internalType": "string",
          "name": "",
          "type": "string"
        }
      ],
      "stateMutability": "view",
      "type": "function"
    },
    {
      "inputs": [
        {
          "internalType": "uint256",
          "name": "_tokenId",
          "type": "uint256"
        }
      ],
      "name": "tokenURI",
      "outputs": [
        {
          "internalType": "string",
          "name": "",
          "type": "string"
        }
      ],
      "stateMutability": "view",
      "type": "function"
    },
    {
      "inputs": [
        {
          "internalType": "address",
          "name": "from",
          "type": "address"
        },
        {
          "internalType": "address",
          "name": "to",
          "type": "address"
        },
        {
          "internalType": "uint256",
          "name": "tokenId",
          "type": "uint256"
        }
      ],
      "name": "transferFrom",
      "outputs": [],
      "stateMutability": "nonpayable",
      "type": "function"
    },
    {
      "inputs": [
        {
          "internalType": "address",
          "name": "newOwner",
          "type": "address"
        }
      ],
      "name": "transferOwnership",
      "outputs": [],
      "stateMutability": "nonpayable",
      "type": "function"
    },
    {
      "inputs": [],
      "name": "typeBoxBeer",
      "outputs": [
        {
          "internalType": "uint256",
          "name": "",
          "type": "uint256"
        }
      ],
      "stateMutability": "view",
      "type": "function"
    },
    {
      "inputs": [],
      "name": "typeBoxRum",
      "outputs": [
        {
          "internalType": "uint256",
          "name": "",
          "type": "uint256"
        }
      ],
      "stateMutability": "view",
      "type": "function"
    },
    {
      "inputs": [],
      "name": "typeBoxWine",
      "outputs": [
        {
          "internalType": "uint256",
          "name": "",
          "type": "uint256"
        }
      ],
      "stateMutability": "view",
      "type": "function"
    },
    {
      "inputs": [
        {
          "internalType": "uint256",
          "name": "_tokenId",
          "type": "uint256"
        }
      ],
      "name": "whatTypeBox",
      "outputs": [
        {
          "internalType": "uint256",
          "name": "typeBox",
          "type": "uint256"
        }
      ],
      "stateMutability": "pure",
      "type": "function"
    },
    {
      "inputs": [
        {
          "internalType": "address",
          "name": "",
          "type": "address"
        }
      ],
      "name": "whitelistUsers",
      "outputs": [
        {
          "internalType": "bool",
          "name": "",
          "type": "bool"
        }
      ],
      "stateMutability": "view",
      "type": "function"
    },
    {
      "inputs": [
        {
          "internalType": "uint256",
          "name": "_amount",
          "type": "uint256"
        }
      ],
      "name": "withdraw",
      "outputs": [],
      "stateMutability": "nonpayable",
      "type": "function"
    },
    {
      "inputs": [],
      "name": "withdrawAll",
      "outputs": [],
      "stateMutability": "nonpayable",
      "type": "function"
    }
  ],
  "bytecode": "0x6080604052600f600a55600b805461ffff191690553480156200002157600080fd5b506040516200283438038062002834833981016040819052620000449162000266565b8151829082906200005d90600090602085019062000109565b5080516200007390600190602084019062000109565b505050620000906200008a620000b360201b60201c565b620000b7565b426009558251620000a990600c90602086019062000109565b505050506200034a565b3390565b600680546001600160a01b038381166001600160a01b0319831681179093556040519116919082907f8be0079c531659141344cd1fd0a4f28419497f9722a3daafe3b4186f6b6457e090600090a35050565b8280546200011790620002f7565b90600052602060002090601f0160209004810192826200013b576000855562000186565b82601f106200015657805160ff191683800117855562000186565b8280016001018555821562000186579182015b828111156200018657825182559160200191906001019062000169565b506200019492915062000198565b5090565b5b8082111562000194576000815560010162000199565b600082601f830112620001c157600080fd5b81516001600160401b0380821115620001de57620001de62000334565b604051601f8301601f19908116603f0116810190828211818310171562000209576200020962000334565b816040528381526020925086838588010111156200022657600080fd5b600091505b838210156200024a57858201830151818301840152908201906200022b565b838211156200025c5760008385830101525b9695505050505050565b6000806000606084860312156200027c57600080fd5b83516001600160401b03808211156200029457600080fd5b620002a287838801620001af565b94506020860151915080821115620002b957600080fd5b620002c787838801620001af565b93506040860151915080821115620002de57600080fd5b50620002ed86828701620001af565b9150509250925092565b600181811c908216806200030c57607f821691505b602082108114156200032e57634e487b7160e01b600052602260045260246000fd5b50919050565b634e487b7160e01b600052604160045260246000fd5b6124da806200035a6000396000f3fe6080604052600436106101e15760003560e01c806301ffc9a7146101e657806306fdde031461021b578063081812fc1461023d578063095ea7b314610275578063113e0844146102975780631596facb146102b7578063166175e4146102db57806323b872dd146102f05780632e1a7d4d146103105780633ce086ec14610330578063406d382a1461034557806342842e0e1461035857806355f804b3146103785780635758edea146103985780636352211e146103b75780636ec55dbc146103d757806370a0823114610407578063715018a614610427578063728565531461043c5780637d25177e1461049e5780637d9e6869146104be5780637e288822146104de578063853828b6146104f15780638a15c875146105065780638da5cb5b1461051c5780639166342f1461053157806395d89b4114610561578063a0355eca14610576578063a22cb46514610596578063b256c7ca146105b6578063b88d4fde146105cc578063be9a6555146105ec578063c196548114610602578063c6e62e0b14610618578063c87b56dd1461062e578063e19d13091461064e578063e985e9c514610664578063e99a6b0e14610684578063edac985b14610699578063f2fde38b146106b9578063fbb56248146106d9578063fd492f5e146106f3575b600080fd5b3480156101f257600080fd5b50610206610201366004611f35565b610713565b60405190151581526020015b60405180910390f35b34801561022757600080fd5b50610230610765565b60405161021291906121e9565b34801561024957600080fd5b5061025d610258366004611fb7565b6107f7565b6040516001600160a01b039091168152602001610212565b34801561028157600080fd5b50610295610290366004611e3c565b61081e565b005b3480156102a357600080fd5b506102956102b2366004611f19565b610939565b3480156102c357600080fd5b506102cd60085481565b604051908152602001610212565b3480156102e757600080fd5b506102cd600281565b3480156102fc57600080fd5b5061029561030b366004611d5b565b6109a5565b34801561031c57600080fd5b5061029561032b366004611fb7565b6109d6565b34801561033c57600080fd5b506102cd600181565b610295610353366004611fd0565b610a1e565b34801561036457600080fd5b50610295610373366004611d5b565b610cd7565b34801561038457600080fd5b50610295610393366004611f6f565b610cf2565b3480156103a457600080fd5b50600b5461020690610100900460ff1681565b3480156103c357600080fd5b5061025d6103d2366004611fb7565b610d3d565b3480156103e357600080fd5b506102066103f2366004611d06565b600e6020526000908152604090205460ff1681565b34801561041357600080fd5b506102cd610422366004611d06565b610d72565b34801561043357600080fd5b50610295610df8565b34801561044857600080fd5b5061047e610457366004611fb7565b600d6020526000908152604090208054600182015460028301546003909301549192909184565b604080519485526020850193909352918301526060820152608001610212565b3480156104aa57600080fd5b506102956104b9366004611fb7565b610e0c565b3480156104ca57600080fd5b506102cd6104d9366004611fb7565b610e49565b3480156104ea57600080fd5b50476102cd565b3480156104fd57600080fd5b50610295610ecf565b34801561051257600080fd5b506102cd610fa081565b34801561052857600080fd5b5061025d610f0b565b34801561053d57600080fd5b506102cd61054c366004611fb7565b6000908152600d602052604090206002015490565b34801561056d57600080fd5b50610230610f1a565b34801561058257600080fd5b50610295610591366004611fd0565b610f29565b3480156105a257600080fd5b506102956105b1366004611e12565b610f71565b3480156105c257600080fd5b506102cd600a5481565b3480156105d857600080fd5b506102956105e7366004611d97565b610f80565b3480156105f857600080fd5b506102cd60095481565b34801561060e57600080fd5b506102cd61177081565b34801561062457600080fd5b506102cd60075481565b34801561063a57600080fd5b50610230610649366004611fb7565b610fb2565b34801561065a57600080fd5b506102cd61271081565b34801561067057600080fd5b5061020661067f366004611d28565b61105b565b34801561069057600080fd5b506102cd600381565b3480156106a557600080fd5b506102956106b4366004611e66565b611089565b3480156106c557600080fd5b506102956106d4366004611d06565b611129565b3480156106e557600080fd5b50600b546102069060ff1681565b3480156106ff57600080fd5b5061029561070e366004611ff2565b6111a2565b60006001600160e01b031982166380ac58cd60e01b148061074457506001600160e01b03198216635b5e139f60e01b145b8061075f57506301ffc9a760e01b6001600160e01b03198316145b92915050565b6060600080546107749061238c565b80601f01602080910402602001604051908101604052809291908181526020018280546107a09061238c565b80156107ed5780601f106107c2576101008083540402835291602001916107ed565b820191906000526020600020905b8154815290600101906020018083116107d057829003601f168201915b5050505050905090565b6000610802826112e6565b506000908152600460205260409020546001600160a01b031690565b600061082982610d3d565b9050806001600160a01b0316836001600160a01b0316141561089c5760405162461bcd60e51b815260206004820152602160248201527f4552433732313a20617070726f76616c20746f2063757272656e74206f776e656044820152603960f91b60648201526084015b60405180910390fd5b336001600160a01b03821614806108b857506108b8813361105b565b61092a5760405162461bcd60e51b815260206004820152603e60248201527f4552433732313a20617070726f76652063616c6c6572206973206e6f7420746f60448201527f6b656e206f776e6572206e6f7220617070726f76656420666f7220616c6c00006064820152608401610893565b610934838361130b565b505050565b610941611379565b600b8054821515610100810261ff001986151590811661ffff1990941693909317179092556040805191825260208201929092527fa1736626c0f9dcf3313a4b4afc795f8b0f8bb6e0a3a7366bf9d0a1dfddf601c291015b60405180910390a15050565b6109af33826113d8565b6109cb5760405162461bcd60e51b815260040161089390612280565b610934838383611437565b6109de611379565b6109e7816115c1565b6040518181527f5b6b431d4476a211bb7d41c20d1aab9ae2321deee0d20be3d9fc9b1093fa6e3d906020015b60405180910390a150565b600a543390349084610a2f84610d72565b610a3991906122fe565b1115610a875760405162461bcd60e51b815260206004820152601d60248201527f4e4654426f783a20427579696e67206c696d69742065786365656465640000006044820152606401610893565b6000838152600d602052604090206003810154600290910154610aaa90866122fe565b1115610b0e5760405162461bcd60e51b815260206004820152602d60248201527f4e4654426f783a20596f752063616e277420627579206d6f7265207468616e2060448201526c1d1a1948189bde081b1a5b5a5d609a1b6064820152608401610893565b600754600954610b1e91906122fe565b4211158015610b2f5750600b5460ff165b15610c23576001600160a01b0382166000908152600e602052604090205460ff16610ba85760405162461bcd60e51b8152602060048201526024808201527f4e4654426f783a20596f7520617265206e6f74206f6e207468652077686974656044820152631b1a5cdd60e21b6064820152608401610893565b6000838152600d6020526040902054610bc1908561232a565b811015610c135760405162461bcd60e51b815260206004820152602c602482015260008051602061248583398151915260448201526b79206f6e2070726573616c6560a01b6064820152608401610893565b610c1e8484846116a4565b610cd1565b600854600754600954610c3691906122fe565b610c4091906122fe565b4211158015610c565750600b54610100900460ff165b15610cd1576000838152600d6020526040902060010154610c77908561232a565b811015610cc65760405162461bcd60e51b8152602060048201526029602482015260008051602061248583398151915260448201526879206f6e2073616c6560b81b6064820152608401610893565b610cd18484846116a4565b50505050565b61093483838360405180602001604052806000815250610f80565b610cfa611379565b8051610d0d90600c906020840190611bef565b507f23c8c9488efebfd474e85a7956de6f39b17c7ab88502d42a623db2d8e382bbaa81604051610a1391906121e9565b6000818152600260205260408120546001600160a01b03168061075f5760405162461bcd60e51b81526004016108939061224e565b60006001600160a01b038216610ddc5760405162461bcd60e51b815260206004820152602960248201527f4552433732313a2061646472657373207a65726f206973206e6f7420612076616044820152683634b21037bbb732b960b91b6064820152608401610893565b506001600160a01b031660009081526003602052604090205490565b610e00611379565b610e0a6000611758565b565b610e14611379565b600a8190556040518181527ff011c5ba453947eda194973c36b22c16a8630df669f66822e36b82f65862622290602001610a13565b60006127108211610e5c57506001919050565b81612710108015610e7a5750610e766117706127106122fe565b8211155b15610e8757506002919050565b81610e966117706127106122fe565b108015610ebd5750610fa0610eaf6117706127106122fe565b610eb991906122fe565b8211155b15610eca57506003919050565b919050565b610ed7611379565b610ee0476115c1565b6040517f5a648bc540f9bf9a33d1fe64d284e4a69a88aa95d4c7f8054d4bc85f877dcf4e90600090a1565b6006546001600160a01b031690565b6060600180546107749061238c565b610f31611379565b6007829055600881905560408051838152602081018390527f0f7582c54a0cbb38f44d6ee3ee4aba7702ed497ba7bd53d0643f5a85c37f16249101610999565b610f7c3383836117aa565b5050565b610f8a33836113d8565b610fa65760405162461bcd60e51b815260040161089390612280565b610cd184848484611875565b6060610fbd826118a8565b1561101e576000600c8054610fd19061238c565b905011610fed576040518060200160405280600081525061075f565b600c610ff8836118c5565b6040516020016110099291906120fb565b60405160208183030381529060405292915050565b6000600c805461102d9061238c565b905011611049576040518060200160405280600081525061075f565b600c6040516020016110099190612130565b6001600160a01b03918216600090815260056020908152604080832093909416825291909152205460ff1690565b611091611379565b60005b81518110156110f9576001600e60008484815181106110b5576110b5612422565b6020908102919091018101516001600160a01b03168252810191909152604001600020805460ff1916911515919091179055806110f1816123c7565b915050611094565b507fe5404d7812d1c28f58a3ff1072be59a5491840237c470c128e888280434cd79281604051610a13919061219c565b611131611379565b6001600160a01b0381166111965760405162461bcd60e51b815260206004820152602660248201527f4f776e61626c653a206e6577206f776e657220697320746865207a65726f206160448201526564647265737360d01b6064820152608401610893565b61119f81611758565b50565b6111aa611379565b846111b58383612349565b146111fd5760405162461bcd60e51b81526020600482015260186024820152774e4654426f783a20496e636f72726563742076616c75657360401b6044820152606401610893565b600186148061120c5750600286145b806112175750600386145b61125f5760405162461bcd60e51b815260206004820152601960248201527809c8ca884def0744092dcc6dee4e4cac6e840e8f2e0ca84def603b1b6044820152606401610893565b6000868152600d6020526040902084815560018101849055600281018390556003018190557f4cd78d372dca76f7b03a2a4c4a7b12662d01c960d3497fdcb2344494305f31cf868585856112b38a826122fe565b604080519586526020860194909452928401919091526060830152608082015260a00160405180910390a1505050505050565b6112ef816118a8565b61119f5760405162461bcd60e51b81526004016108939061224e565b600081815260046020526040902080546001600160a01b0319166001600160a01b038416908117909155819061134082610d3d565b6001600160a01b03167f8c5be1e5ebec7d5bd14f71427d1e84f3dd0314c0f7b2291e5b200ac8c7c3b92560405160405180910390a45050565b33611382610f0b565b6001600160a01b031614610e0a5760405162461bcd60e51b815260206004820181905260248201527f4f776e61626c653a2063616c6c6572206973206e6f7420746865206f776e65726044820152606401610893565b6000806113e483610d3d565b9050806001600160a01b0316846001600160a01b0316148061140b575061140b818561105b565b8061142f5750836001600160a01b0316611424846107f7565b6001600160a01b0316145b949350505050565b826001600160a01b031661144a82610d3d565b6001600160a01b0316146114ae5760405162461bcd60e51b815260206004820152602560248201527f4552433732313a207472616e736665722066726f6d20696e636f72726563742060448201526437bbb732b960d91b6064820152608401610893565b6001600160a01b0382166115105760405162461bcd60e51b8152602060048201526024808201527f4552433732313a207472616e7366657220746f20746865207a65726f206164646044820152637265737360e01b6064820152608401610893565b61151b60008261130b565b6001600160a01b0383166000908152600360205260408120805460019290611544908490612349565b90915550506001600160a01b03821660009081526003602052604081208054600192906115729084906122fe565b909155505060008181526002602052604080822080546001600160a01b0319166001600160a01b03868116918217909255915184939187169160008051602061246583398151915291a4505050565b600081116116275760405162461bcd60e51b815260206004820152602d60248201527f576974686472617761626c653a20416d6f756e742068617320746f206265206760448201526c0726561746572207468616e203609c1b6064820152608401610893565b478111156116775760405162461bcd60e51b815260206004820152601e60248201527f576974686472617761626c653a204e6f7420656e6f7567682066756e647300006044820152606401610893565b604051339082156108fc029083906000818181858888f19350505050158015610f7c573d6000803e3d6000fd5b6000828152600d6020526040812060020154905b8481101561172b576116cb6001836122fe565b91506116d783836119c2565b604080516001600160a01b0385168152602081018490527fad60f02889707790df717ec206c9c6d7c30b2710c85ef9cd25aa52482fee5706910160405180910390a180611723816123c7565b9150506116b8565b506000838152600d60205260408120600201805486929061174d9084906122fe565b909155505050505050565b600680546001600160a01b038381166001600160a01b0319831681179093556040519116919082907f8be0079c531659141344cd1fd0a4f28419497f9722a3daafe3b4186f6b6457e090600090a35050565b816001600160a01b0316836001600160a01b031614156118085760405162461bcd60e51b815260206004820152601960248201527822a9219b99189d1030b8383937bb32903a379031b0b63632b960391b6044820152606401610893565b6001600160a01b03838116600081815260056020908152604080832094871680845294825291829020805460ff191686151590811790915591519182527f17307eab39ab6107e8899845ad3d59bd9653f200f220920489ca2b5937696c31910160405180910390a3505050565b611880848484611437565b61188c84848484611ae2565b610cd15760405162461bcd60e51b8152600401610893906121fc565b6000908152600260205260409020546001600160a01b0316151590565b6060816118e95750506040805180820190915260018152600360fc1b602082015290565b8160005b811561191357806118fd816123c7565b915061190c9050600a83612316565b91506118ed565b6000816001600160401b0381111561192d5761192d612438565b6040519080825280601f01601f191660200182016040528015611957576020820181803683370190505b5090505b841561142f5761196c600183612349565b9150611979600a866123e2565b6119849060306122fe565b60f81b81838151811061199957611999612422565b60200101906001600160f81b031916908160001a9053506119bb600a86612316565b945061195b565b6001600160a01b038216611a185760405162461bcd60e51b815260206004820181905260248201527f4552433732313a206d696e7420746f20746865207a65726f20616464726573736044820152606401610893565b611a21816118a8565b15611a6d5760405162461bcd60e51b815260206004820152601c60248201527b115490cdcc8c4e881d1bdad95b88185b1c9958591e481b5a5b9d195960221b6044820152606401610893565b6001600160a01b0382166000908152600360205260408120805460019290611a969084906122fe565b909155505060008181526002602052604080822080546001600160a01b0319166001600160a01b0386169081179091559051839290600080516020612465833981519152908290a45050565b60006001600160a01b0384163b15611be457604051630a85bd0160e11b81526001600160a01b0385169063150b7a0290611b2690339089908890889060040161215f565b602060405180830381600087803b158015611b4057600080fd5b505af1925050508015611b70575060408051601f3d908101601f19168201909252611b6d91810190611f52565b60015b611bca573d808015611b9e576040519150601f19603f3d011682016040523d82523d6000602084013e611ba3565b606091505b508051611bc25760405162461bcd60e51b8152600401610893906121fc565b805181602001fd5b6001600160e01b031916630a85bd0160e11b14905061142f565b506001949350505050565b828054611bfb9061238c565b90600052602060002090601f016020900481019282611c1d5760008555611c63565b82601f10611c3657805160ff1916838001178555611c63565b82800160010185558215611c63579182015b82811115611c63578251825591602001919060010190611c48565b50611c6f929150611c73565b5090565b5b80821115611c6f5760008155600101611c74565b60006001600160401b03831115611ca157611ca1612438565b611cb4601f8401601f19166020016122ce565b9050828152838383011115611cc857600080fd5b828260208301376000602084830101529392505050565b80356001600160a01b0381168114610eca57600080fd5b80358015158114610eca57600080fd5b600060208284031215611d1857600080fd5b611d2182611cdf565b9392505050565b60008060408385031215611d3b57600080fd5b611d4483611cdf565b9150611d5260208401611cdf565b90509250929050565b600080600060608486031215611d7057600080fd5b611d7984611cdf565b9250611d8760208501611cdf565b9150604084013590509250925092565b60008060008060808587031215611dad57600080fd5b611db685611cdf565b9350611dc460208601611cdf565b92506040850135915060608501356001600160401b03811115611de657600080fd5b8501601f81018713611df757600080fd5b611e0687823560208401611c88565b91505092959194509250565b60008060408385031215611e2557600080fd5b611e2e83611cdf565b9150611d5260208401611cf6565b60008060408385031215611e4f57600080fd5b611e5883611cdf565b946020939093013593505050565b60006020808385031215611e7957600080fd5b82356001600160401b0380821115611e9057600080fd5b818501915085601f830112611ea457600080fd5b813581811115611eb657611eb6612438565b8060051b9150611ec78483016122ce565b8181528481019084860184860187018a1015611ee257600080fd5b600095505b83861015611f0c57611ef881611cdf565b835260019590950194918601918601611ee7565b5098975050505050505050565b60008060408385031215611f2c57600080fd5b611e2e83611cf6565b600060208284031215611f4757600080fd5b8135611d218161244e565b600060208284031215611f6457600080fd5b8151611d218161244e565b600060208284031215611f8157600080fd5b81356001600160401b03811115611f9757600080fd5b8201601f81018413611fa857600080fd5b61142f84823560208401611c88565b600060208284031215611fc957600080fd5b5035919050565b60008060408385031215611fe357600080fd5b50508035926020909101359150565b60008060008060008060c0878903121561200b57600080fd5b505084359660208601359650604086013595606081013595506080810135945060a0013592509050565b6000815180845261204d816020860160208601612360565b601f01601f19169290920160200192915050565b8054600090600181811c908083168061207b57607f831692505b602080841082141561209d57634e487b7160e01b600052602260045260246000fd5b8180156120b157600181146120c2576120ef565b60ff198616895284890196506120ef565b60008881526020902060005b868110156120e75781548b8201529085019083016120ce565b505084890196505b50505050505092915050565b60006121078285612061565b8351612117818360208801612360565b64173539b7b760d91b9101908152600501949350505050565b600061213c8284612061565b7230b631b796ba3934b816bbb0b4ba173539b7b760691b81526013019392505050565b6001600160a01b038581168252841660208201526040810183905260806060820181905260009061219290830184612035565b9695505050505050565b6020808252825182820181905260009190848201906040850190845b818110156121dd5783516001600160a01b0316835292840192918401916001016121b8565b50909695505050505050565b602081526000611d216020830184612035565b60208082526032908201527f4552433732313a207472616e7366657220746f206e6f6e20455243373231526560408201527131b2b4bb32b91034b6b83632b6b2b73a32b960711b606082015260800190565b602080825260189082015277115490cdcc8c4e881a5b9d985b1a59081d1bdad95b88125160421b604082015260600190565b6020808252602e908201527f4552433732313a2063616c6c6572206973206e6f7420746f6b656e206f776e6560408201526d1c881b9bdc88185c1c1c9bdd995960921b606082015260800190565b604051601f8201601f191681016001600160401b03811182821017156122f6576122f6612438565b604052919050565b60008219821115612311576123116123f6565b500190565b6000826123255761232561240c565b500490565b6000816000190483118215151615612344576123446123f6565b500290565b60008282101561235b5761235b6123f6565b500390565b60005b8381101561237b578181015183820152602001612363565b83811115610cd15750506000910152565b600181811c908216806123a057607f821691505b602082108114156123c157634e487b7160e01b600052602260045260246000fd5b50919050565b60006000198214156123db576123db6123f6565b5060010190565b6000826123f1576123f161240c565b500690565b634e487b7160e01b600052601160045260246000fd5b634e487b7160e01b600052601260045260246000fd5b634e487b7160e01b600052603260045260246000fd5b634e487b7160e01b600052604160045260246000fd5b6001600160e01b03198116811461119f57600080fdfeddf252ad1be2c89b69c2b068fc378daa952ba7f163c4a11628f55a4df523b3ef4e4654426f783a20496e73756666696369656e742066756e647320746f206275a2646970667358221220e70970e7ef3ff1ce88f16c1d09a30d9a010f102469d8bf0d46722f6c3dbc74ad64736f6c63430008070033",
  "linkReferences": {},
  "deployedLinkReferences": {}
}