{
  "_format": "hh-sol-artifact-1",
  "contractName": "NFTBottle",
  "sourceName": "contracts/NFTBottle.sol",
  "abi": [
    {
      "inputs": [
        {
          "internalType": "contract INFTBox",
          "name": "_nftBox",
          "type": "address"
        },
        {
          "internalType": "string",
          "name": "_baseUri",
          "type": "string"
        },
        {
          "internalType": "string",
          "name": "_name",
          "type": "string"
        },
        {
          "internalType": "string",
          "name": "_symbol",
          "type": "string"
        }
      ],
      "stateMutability": "nonpayable",
      "type": "constructor"
    },
    {
      "anonymous": false,
      "inputs": [
        {
          "indexed": true,
          "internalType": "address",
          "name": "owner",
          "type": "address"
        },
        {
          "indexed": true,
          "internalType": "address",
          "name": "approved",
          "type": "address"
        },
        {
          "indexed": true,
          "internalType": "uint256",
          "name": "tokenId",
          "type": "uint256"
        }
      ],
      "name": "Approval",
      "type": "event"
    },
    {
      "anonymous": false,
      "inputs": [
        {
          "indexed": true,
          "internalType": "address",
          "name": "owner",
          "type": "address"
        },
        {
          "indexed": true,
          "internalType": "address",
          "name": "operator",
          "type": "address"
        },
        {
          "indexed": false,
          "internalType": "bool",
          "name": "approved",
          "type": "bool"
        }
      ],
      "name": "ApprovalForAll",
      "type": "event"
    },
    {
      "anonymous": false,
      "inputs": [
        {
          "indexed": false,
          "internalType": "address",
          "name": "user",
          "type": "address"
        },
        {
          "indexed": false,
          "internalType": "uint256",
          "name": "tokenIdBox",
          "type": "uint256"
        }
      ],
      "name": "OpenBox",
      "type": "event"
    },
    {
      "anonymous": false,
      "inputs": [
        {
          "indexed": true,
          "internalType": "address",
          "name": "previousOwner",
          "type": "address"
        },
        {
          "indexed": true,
          "internalType": "address",
          "name": "newOwner",
          "type": "address"
        }
      ],
      "name": "OwnershipTransferred",
      "type": "event"
    },
    {
      "anonymous": false,
      "inputs": [
        {
          "indexed": false,
          "internalType": "uint256",
          "name": "typeBox",
          "type": "uint256"
        }
      ],
      "name": "SetTypeBottleABV",
      "type": "event"
    },
    {
      "anonymous": false,
      "inputs": [
        {
          "indexed": false,
          "internalType": "uint256",
          "name": "typeBox",
          "type": "uint256"
        }
      ],
      "name": "SetTypeBottleMaxVolume",
      "type": "event"
    },
    {
      "anonymous": false,
      "inputs": [
        {
          "indexed": true,
          "internalType": "address",
          "name": "from",
          "type": "address"
        },
        {
          "indexed": true,
          "internalType": "address",
          "name": "to",
          "type": "address"
        },
        {
          "indexed": true,
          "internalType": "uint256",
          "name": "tokenId",
          "type": "uint256"
        }
      ],
      "name": "Transfer",
      "type": "event"
    },
    {
      "inputs": [
        {
          "internalType": "uint256",
          "name": "",
          "type": "uint256"
        }
      ],
      "name": "ABVBeer",
      "outputs": [
        {
          "internalType": "uint256",
          "name": "",
          "type": "uint256"
        }
      ],
      "stateMutability": "view",
      "type": "function"
    },
    {
      "inputs": [
        {
          "internalType": "uint256",
          "name": "",
          "type": "uint256"
        }
      ],
      "name": "ABVRum",
      "outputs": [
        {
          "internalType": "uint256",
          "name": "",
          "type": "uint256"
        }
      ],
      "stateMutability": "view",
      "type": "function"
    },
    {
      "inputs": [
        {
          "internalType": "uint256",
          "name": "",
          "type": "uint256"
        }
      ],
      "name": "ABVWine",
      "outputs": [
        {
          "internalType": "uint256",
          "name": "",
          "type": "uint256"
        }
      ],
      "stateMutability": "view",
      "type": "function"
    },
    {
      "inputs": [
        {
          "internalType": "address",
          "name": "to",
          "type": "address"
        },
        {
          "internalType": "uint256",
          "name": "tokenId",
          "type": "uint256"
        }
      ],
      "name": "approve",
      "outputs": [],
      "stateMutability": "nonpayable",
      "type": "function"
    },
    {
      "inputs": [
        {
          "internalType": "address",
          "name": "owner",
          "type": "address"
        }
      ],
      "name": "balanceOf",
      "outputs": [
        {
          "internalType": "uint256",
          "name": "",
          "type": "uint256"
        }
      ],
      "stateMutability": "view",
      "type": "function"
    },
    {
      "inputs": [
        {
          "internalType": "uint256",
          "name": "",
          "type": "uint256"
        }
      ],
      "name": "bottleInfo",
      "outputs": [
        {
          "internalType": "uint256",
          "name": "typeBottle",
          "type": "uint256"
        },
        {
          "internalType": "uint256",
          "name": "tokenId",
          "type": "uint256"
        },
        {
          "internalType": "uint256",
          "name": "maxVolume",
          "type": "uint256"
        },
        {
          "internalType": "uint256",
          "name": "ABV",
          "type": "uint256"
        }
      ],
      "stateMutability": "view",
      "type": "function"
    },
    {
      "inputs": [
        {
          "internalType": "uint256",
          "name": "",
          "type": "uint256"
        }
      ],
      "name": "boxIsOpen",
      "outputs": [
        {
          "internalType": "bool",
          "name": "",
          "type": "bool"
        }
      ],
      "stateMutability": "view",
      "type": "function"
    },
    {
      "inputs": [
        {
          "internalType": "uint256",
          "name": "tokenId",
          "type": "uint256"
        }
      ],
      "name": "getApproved",
      "outputs": [
        {
          "internalType": "address",
          "name": "",
          "type": "address"
        }
      ],
      "stateMutability": "view",
      "type": "function"
    },
    {
      "inputs": [
        {
          "internalType": "address",
          "name": "owner",
          "type": "address"
        },
        {
          "internalType": "address",
          "name": "operator",
          "type": "address"
        }
      ],
      "name": "isApprovedForAll",
      "outputs": [
        {
          "internalType": "bool",
          "name": "",
          "type": "bool"
        }
      ],
      "stateMutability": "view",
      "type": "function"
    },
    {
      "inputs": [
        {
          "internalType": "uint256",
          "name": "",
          "type": "uint256"
        }
      ],
      "name": "maxVolumeBeer",
      "outputs": [
        {
          "internalType": "uint256",
          "name": "",
          "type": "uint256"
        }
      ],
      "stateMutability": "view",
      "type": "function"
    },
    {
      "inputs": [
        {
          "internalType": "uint256",
          "name": "",
          "type": "uint256"
        }
      ],
      "name": "maxVolumeRum",
      "outputs": [
        {
          "internalType": "uint256",
          "name": "",
          "type": "uint256"
        }
      ],
      "stateMutability": "view",
      "type": "function"
    },
    {
      "inputs": [
        {
          "internalType": "uint256",
          "name": "",
          "type": "uint256"
        }
      ],
      "name": "maxVolumeWine",
      "outputs": [
        {
          "internalType": "uint256",
          "name": "",
          "type": "uint256"
        }
      ],
      "stateMutability": "view",
      "type": "function"
    },
    {
      "inputs": [],
      "name": "name",
      "outputs": [
        {
          "internalType": "string",
          "name": "",
          "type": "string"
        }
      ],
      "stateMutability": "view",
      "type": "function"
    },
    {
      "inputs": [],
      "name": "nftBox",
      "outputs": [
        {
          "internalType": "contract INFTBox",
          "name": "",
          "type": "address"
        }
      ],
      "stateMutability": "view",
      "type": "function"
    },
    {
      "inputs": [
        {
          "internalType": "uint256",
          "name": "_tokenIdBox",
          "type": "uint256"
        }
      ],
      "name": "openBox",
      "outputs": [],
      "stateMutability": "nonpayable",
      "type": "function"
    },
    {
      "inputs": [],
      "name": "owner",
      "outputs": [
        {
          "internalType": "address",
          "name": "",
          "type": "address"
        }
      ],
      "stateMutability": "view",
      "type": "function"
    },
    {
      "inputs": [
        {
          "internalType": "uint256",
          "name": "tokenId",
          "type": "uint256"
        }
      ],
      "name": "ownerOf",
      "outputs": [
        {
          "internalType": "address",
          "name": "",
          "type": "address"
        }
      ],
      "stateMutability": "view",
      "type": "function"
    },
    {
      "inputs": [],
      "name": "renounceOwnership",
      "outputs": [],
      "stateMutability": "nonpayable",
      "type": "function"
    },
    {
      "inputs": [
        {
          "internalType": "address",
          "name": "from",
          "type": "address"
        },
        {
          "internalType": "address",
          "name": "to",
          "type": "address"
        },
        {
          "internalType": "uint256",
          "name": "tokenId",
          "type": "uint256"
        }
      ],
      "name": "safeTransferFrom",
      "outputs": [],
      "stateMutability": "nonpayable",
      "type": "function"
    },
    {
      "inputs": [
        {
          "internalType": "address",
          "name": "from",
          "type": "address"
        },
        {
          "internalType": "address",
          "name": "to",
          "type": "address"
        },
        {
          "internalType": "uint256",
          "name": "tokenId",
          "type": "uint256"
        },
        {
          "internalType": "bytes",
          "name": "data",
          "type": "bytes"
        }
      ],
      "name": "safeTransferFrom",
      "outputs": [],
      "stateMutability": "nonpayable",
      "type": "function"
    },
    {
      "inputs": [
        {
          "internalType": "address",
          "name": "operator",
          "type": "address"
        },
        {
          "internalType": "bool",
          "name": "approved",
          "type": "bool"
        }
      ],
      "name": "setApprovalForAll",
      "outputs": [],
      "stateMutability": "nonpayable",
      "type": "function"
    },
    {
      "inputs": [
        {
          "internalType": "uint256",
          "name": "_typeBox",
          "type": "uint256"
        }
      ],
      "name": "setTypeBottleABV",
      "outputs": [],
      "stateMutability": "nonpayable",
      "type": "function"
    },
    {
      "inputs": [
        {
          "internalType": "uint256",
          "name": "_typeBox",
          "type": "uint256"
        }
      ],
      "name": "setTypeBottleMaxVolume",
      "outputs": [],
      "stateMutability": "nonpayable",
      "type": "function"
    },
    {
      "inputs": [
        {
          "internalType": "bytes4",
          "name": "interfaceId",
          "type": "bytes4"
        }
      ],
      "name": "supportsInterface",
      "outputs": [
        {
          "internalType": "bool",
          "name": "",
          "type": "bool"
        }
      ],
      "stateMutability": "view",
      "type": "function"
    },
    {
      "inputs": [],
      "name": "symbol",
      "outputs": [
        {
          "internalType": "string",
          "name": "",
          "type": "string"
        }
      ],
      "stateMutability": "view",
      "type": "function"
    },
    {
      "inputs": [
        {
          "internalType": "uint256",
          "name": "_tokenId",
          "type": "uint256"
        }
      ],
      "name": "tokenURI",
      "outputs": [
        {
          "internalType": "string",
          "name": "",
          "type": "string"
        }
      ],
      "stateMutability": "view",
      "type": "function"
    },
    {
      "inputs": [
        {
          "internalType": "address",
          "name": "from",
          "type": "address"
        },
        {
          "internalType": "address",
          "name": "to",
          "type": "address"
        },
        {
          "internalType": "uint256",
          "name": "tokenId",
          "type": "uint256"
        }
      ],
      "name": "transferFrom",
      "outputs": [],
      "stateMutability": "nonpayable",
      "type": "function"
    },
    {
      "inputs": [
        {
          "internalType": "address",
          "name": "newOwner",
          "type": "address"
        }
      ],
      "name": "transferOwnership",
      "outputs": [],
      "stateMutability": "nonpayable",
      "type": "function"
    },
    {
      "inputs": [
        {
          "internalType": "uint256",
          "name": "",
          "type": "uint256"
        },
        {
          "internalType": "uint256",
          "name": "",
          "type": "uint256"
        }
      ],
      "name": "typeBottleABV",
      "outputs": [
        {
          "internalType": "uint256",
          "name": "",
          "type": "uint256"
        }
      ],
      "stateMutability": "view",
      "type": "function"
    },
    {
      "inputs": [],
      "name": "typeBottleBeer",
      "outputs": [
        {
          "internalType": "uint256",
          "name": "",
          "type": "uint256"
        }
      ],
      "stateMutability": "view",
      "type": "function"
    },
    {
      "inputs": [
        {
          "internalType": "uint256",
          "name": "",
          "type": "uint256"
        },
        {
          "internalType": "uint256",
          "name": "",
          "type": "uint256"
        }
      ],
      "name": "typeBottleMaxVolume",
      "outputs": [
        {
          "internalType": "uint256",
          "name": "",
          "type": "uint256"
        }
      ],
      "stateMutability": "view",
      "type": "function"
    },
    {
      "inputs": [],
      "name": "typeBottleRum",
      "outputs": [
        {
          "internalType": "uint256",
          "name": "",
          "type": "uint256"
        }
      ],
      "stateMutability": "view",
      "type": "function"
    },
    {
      "inputs": [],
      "name": "typeBottleWine",
      "outputs": [
        {
          "internalType": "uint256",
          "name": "",
          "type": "uint256"
        }
      ],
      "stateMutability": "view",
      "type": "function"
    },
    {
      "inputs": [
        {
          "internalType": "uint256",
          "name": "_tokenId",
          "type": "uint256"
        }
      ],
      "name": "whatTypeBottle",
      "outputs": [
        {
          "internalType": "uint256",
          "name": "typeBottle",
          "type": "uint256"
        }
      ],
      "stateMutability": "pure",
      "type": "function"
    }
  ],
  "bytecode": "0x60c060405261014a60809081526101f460a0526200002290600b90600262000258565b50604080518082019091526102ee81526103e860208201526200004a90600c90600262000258565b50604080518082019091526102ee81526103e860208201526200007290600d90600262000258565b506040805160c0810182526020808252602d90820152603a91810191909152603f606082015260486080820152605060a0820152620000b690600e906006620002ae565b506040805160c081018252606e8152607d602082015260829181019190915260876060820152609a608082015260c860a0820152620000fa90600f906006620002ae565b506040805160c08101825261015481526101776020820152610190918101919091526101a460608201526101cc608082015261024e60a08201526200014490601090600662000258565b503480156200015257600080fd5b506040516200237c3803806200237c83398101604081905262000175916200043c565b8151829082906200018e906000906020850190620002f1565b508051620001a4906001906020840190620002f1565b505050620001c1620001bb6200020260201b60201c565b62000206565b8251620001d6906007906020860190620002f1565b5050600a80546001600160a01b0319166001600160a01b03949094169390931790925550620005419050565b3390565b600680546001600160a01b038381166001600160a01b0319831681179093556040519116919082907f8be0079c531659141344cd1fd0a4f28419497f9722a3daafe3b4186f6b6457e090600090a35050565b8280548282559060005260206000209081019282156200029c579160200282015b828111156200029c578251829061ffff1690559160200191906001019062000279565b50620002aa9291506200036e565b5090565b8280548282559060005260206000209081019282156200029c579160200282015b828111156200029c578251829060ff16905591602001919060010190620002cf565b828054620002ff90620004ee565b90600052602060002090601f0160209004810192826200032357600085556200029c565b82601f106200033e57805160ff19168380011785556200029c565b828001600101855582156200029c579182015b828111156200029c57825182559160200191906001019062000351565b5b80821115620002aa57600081556001016200036f565b600082601f8301126200039757600080fd5b81516001600160401b0380821115620003b457620003b46200052b565b604051601f8301601f19908116603f01168101908282118183101715620003df57620003df6200052b565b81604052838152602092508683858801011115620003fc57600080fd5b600091505b8382101562000420578582018301518183018401529082019062000401565b83821115620004325760008385830101525b9695505050505050565b600080600080608085870312156200045357600080fd5b84516001600160a01b03811681146200046b57600080fd5b60208601519094506001600160401b03808211156200048957600080fd5b620004978883890162000385565b94506040870151915080821115620004ae57600080fd5b620004bc8883890162000385565b93506060870151915080821115620004d357600080fd5b50620004e28782880162000385565b91505092959194509250565b600181811c908216806200050357607f821691505b602082108114156200052557634e487b7160e01b600052602260045260246000fd5b50919050565b634e487b7160e01b600052604160045260246000fd5b611e2b80620005516000396000f3fe608060405234801561001057600080fd5b50600436106101965760003560e01c806301ffc9a71461019b57806302d6e176146101c357806306fdde03146101d9578063081812fc146101ee578063095ea7b314610219578063218023361461022e57806323b872dd146102515780632b9a20ab146102645780633211ef6d146102775780633ed8acb0146102cc57806340585100146102df57806342842e0e146102f25780635357c733146103055780636248b4d6146103185780636352211e1461032b57806370a082311461033e578063715018a6146103515780637416b44a146103595780638da5cb5b1461036c57806395d89b41146103745780639f25640e1461037c578063a22cb46514610384578063a331a95214610397578063aff10606146103aa578063b1e5e2b7146103b2578063b88d4fde146103c5578063c21aa11b146103d8578063c87b56dd146103eb578063cc93e113146103fe578063d803ad8314610411578063e37d72b414610424578063e985e9c514610437578063ef86d5481461044a578063f2fde38b1461045d575b600080fd5b6101ae6101a936600461196a565b610470565b60405190151581526020015b60405180910390f35b6101cb600381565b6040519081526020016101ba565b6101e16104c2565b6040516101ba9190611b94565b6102016101fc3660046119a4565b610554565b6040516001600160a01b0390911681526020016101ba565b61022c61022736600461193e565b61057b565b005b6101ae61023c3660046119a4565b60146020526000908152604090205460ff1681565b61022c61025f3660046117eb565b610696565b6101cb6102723660046119a4565b6106c7565b6102ac6102853660046119a4565b60116020526000908152604090208054600182015460028301546003909301549192909184565b6040805194855260208501939093529183015260608201526080016101ba565b6101cb6102da3660046119d6565b6106e8565b6101cb6102ed3660046119a4565b610719565b61022c6103003660046117eb565b610729565b6101cb6103133660046119d6565b610744565b6101cb6103263660046119a4565b610760565b6102016103393660046119a4565b610770565b6101cb61034c366004611771565b6107a5565b61022c61082b565b6101cb6103673660046119a4565b61083f565b61020161084f565b6101e161085e565b6101cb600281565b61022c61039236600461190b565b61086d565b6101cb6103a53660046119a4565b61087c565b6101cb600181565b61022c6103c03660046119a4565b61088c565b61022c6103d336600461182c565b610c3f565b6101cb6103e63660046119a4565b610c77565b6101e16103f93660046119a4565b610ccf565b61022c61040c3660046119a4565b610d78565b61022c61041f3660046119a4565b610e31565b6101cb6104323660046119a4565b610ee3565b6101ae6104453660046117b2565b610ef3565b600a54610201906001600160a01b031681565b61022c61046b366004611771565b610f21565b60006001600160e01b031982166380ac58cd60e01b14806104a157506001600160e01b03198216635b5e139f60e01b145b806104bc57506301ffc9a760e01b6001600160e01b03198316145b92915050565b6060600080546104d190611ce8565b80601f01602080910402602001604051908101604052809291908181526020018280546104fd90611ce8565b801561054a5780601f1061051f5761010080835404028352916020019161054a565b820191906000526020600020905b81548152906001019060200180831161052d57829003601f168201915b5050505050905090565b600061055f82610f9a565b506000908152600460205260409020546001600160a01b031690565b600061058682610770565b9050806001600160a01b0316836001600160a01b031614156105f95760405162461bcd60e51b815260206004820152602160248201527f4552433732313a20617070726f76616c20746f2063757272656e74206f776e656044820152603960f91b60648201526084015b60405180910390fd5b336001600160a01b038216148061061557506106158133610ef3565b6106875760405162461bcd60e51b815260206004820152603e60248201527f4552433732313a20617070726f76652063616c6c6572206973206e6f7420746f60448201527f6b656e206f776e6572206e6f7220617070726f76656420666f7220616c6c000060648201526084016105f0565b6106918383610fbf565b505050565b6106a0338261102d565b6106bc5760405162461bcd60e51b81526004016105f090611c2b565b61069183838361108c565b601081815481106106d757600080fd5b600091825260209091200154905081565b6012602052816000526040600020818154811061070457600080fd5b90600052602060002001600091509150505481565b600f81815481106106d757600080fd5b61069183838360405180602001604052806000815250610c3f565b6013602052816000526040600020818154811061070457600080fd5b600b81815481106106d757600080fd5b6000818152600260205260408120546001600160a01b0316806104bc5760405162461bcd60e51b81526004016105f090611bf9565b60006001600160a01b03821661080f5760405162461bcd60e51b815260206004820152602960248201527f4552433732313a2061646472657373207a65726f206973206e6f7420612076616044820152683634b21037bbb732b960b91b60648201526084016105f0565b506001600160a01b031660009081526003602052604090205490565b610833611216565b61083d6000611275565b565b600d81815481106106d757600080fd5b6006546001600160a01b031690565b6060600180546104d190611ce8565b6108783383836112c7565b5050565b600c81815481106106d757600080fd5b600081815260146020526040902054339060ff16156108eb5760405162461bcd60e51b815260206004820152601b60248201527a27232a2137ba3a36329d102cb7bab9103137bc1034b99037b832b760291b60448201526064016105f0565b600a546040516331a9108f60e11b8152600481018490526001600160a01b03838116921690636352211e9060240160206040518083038186803b15801561093157600080fd5b505afa158015610945573d6000803e3d6000fd5b505050506040513d601f19601f820116820180604052508101906109699190611795565b6001600160a01b0316146109bf5760405162461bcd60e51b815260206004820181905260248201527f4e4654426f74746c653a20596f7520617265206e6f7420626f78206f776e657260448201526064016105f0565b6109ca600242611d3e565b610a06576001600860008282546109e19190611c79565b925050819055506001600960008282546109fb9190611c79565b90915550610a399050565b600260086000828254610a199190611c79565b92505081905550600160096000828254610a339190611c79565b90915550505b610a438183611392565b600082815260146020526040808220805460ff19166001179055600a549051637d9e686960e01b8152600481018590526001600160a01b0390911690637d9e68699060240160206040518083038186803b158015610aa057600080fd5b505afa158015610ab4573d6000803e3d6000fd5b505050506040513d601f19601f82011682018060405250810190610ad891906119bd565b905060004483854260085443604051602001610af996959493929190611b22565b60408051601f19818403018152919052805160209091012090506000610b20600683611d3e565b905060004485874260095443604051602001610b4196959493929190611b22565b60408051601f19818403018152919052805160209091012090506000610b68600283611d3e565b60008681526013602052604081208054929350909185908110610b8d57610b8d611d7e565b906000526020600020015490506000601260008881526020019081526020016000208381548110610bc057610bc0611d7e565b6000918252602080832091909101548b8352601182526040928390208a8155600181018d90556002810182905560030185905582516001600160a01b038c1681529182018c905292507f985873858e85c45546ea9ae9a4f36f740f1654da6c06d25bd88e3a1307ed22df910160405180910390a1505050505050505050565b610c49338361102d565b610c655760405162461bcd60e51b81526004016105f090611c2b565b610c71848484846114b2565b50505050565b60006127108211610c8a57506001919050565b81612710108015610c9d5750613e808211155b15610caa57506002919050565b81613e80108015610cbd5750614e208211155b15610cca57506003919050565b919050565b6060610cda826114e5565b15610d3b57600060078054610cee90611ce8565b905011610d0a57604051806020016040528060008152506104bc565b6007610d1583611502565b604051602001610d26929190611abe565b60405160208183030381529060405292915050565b600060078054610d4a90611ce8565b905011610d6657604051806020016040528060008152506104bc565b6007604051602001610d269190611af3565b610d80611216565b6001811415610dac576000818152601360205260409020600e8054610da692919061170c565b50610dfa565b6002811415610dd2576000818152601360205260409020600f8054610da692919061170c565b6003811415610dfa57600081815260136020526040902060108054610df892919061170c565b505b6040518181527f81ed31de8408d11d0597deed92077388f5698cdcde86b81c617a5f994efd00ca906020015b60405180910390a150565b610e39611216565b6001811415610e65576000818152601260205260409020600b8054610e5f92919061170c565b50610eb3565b6002811415610e8b576000818152601260205260409020600c8054610e5f92919061170c565b6003811415610eb3576000818152601260205260409020600d8054610eb192919061170c565b505b6040518181527f139da2845ca0a35b091a518fc3dbd9121e4c8d7620439cd0166283dbd0ec657190602001610e26565b600e81815481106106d757600080fd5b6001600160a01b03918216600090815260056020908152604080832093909416825291909152205460ff1690565b610f29611216565b6001600160a01b038116610f8e5760405162461bcd60e51b815260206004820152602660248201527f4f776e61626c653a206e6577206f776e657220697320746865207a65726f206160448201526564647265737360d01b60648201526084016105f0565b610f9781611275565b50565b610fa3816114e5565b610f975760405162461bcd60e51b81526004016105f090611bf9565b600081815260046020526040902080546001600160a01b0319166001600160a01b0384169081179091558190610ff482610770565b6001600160a01b03167f8c5be1e5ebec7d5bd14f71427d1e84f3dd0314c0f7b2291e5b200ac8c7c3b92560405160405180910390a45050565b60008061103983610770565b9050806001600160a01b0316846001600160a01b0316148061106057506110608185610ef3565b806110845750836001600160a01b031661107984610554565b6001600160a01b0316145b949350505050565b826001600160a01b031661109f82610770565b6001600160a01b0316146111035760405162461bcd60e51b815260206004820152602560248201527f4552433732313a207472616e736665722066726f6d20696e636f72726563742060448201526437bbb732b960d91b60648201526084016105f0565b6001600160a01b0382166111655760405162461bcd60e51b8152602060048201526024808201527f4552433732313a207472616e7366657220746f20746865207a65726f206164646044820152637265737360e01b60648201526084016105f0565b611170600082610fbf565b6001600160a01b0383166000908152600360205260408120805460019290611199908490611ca5565b90915550506001600160a01b03821660009081526003602052604081208054600192906111c7908490611c79565b909155505060008181526002602052604080822080546001600160a01b0319166001600160a01b038681169182179092559151849391871691600080516020611dd683398151915291a4505050565b3361121f61084f565b6001600160a01b03161461083d5760405162461bcd60e51b815260206004820181905260248201527f4f776e61626c653a2063616c6c6572206973206e6f7420746865206f776e657260448201526064016105f0565b600680546001600160a01b038381166001600160a01b0319831681179093556040519116919082907f8be0079c531659141344cd1fd0a4f28419497f9722a3daafe3b4186f6b6457e090600090a35050565b816001600160a01b0316836001600160a01b031614156113255760405162461bcd60e51b815260206004820152601960248201527822a9219b99189d1030b8383937bb32903a379031b0b63632b960391b60448201526064016105f0565b6001600160a01b03838116600081815260056020908152604080832094871680845294825291829020805460ff191686151590811790915591519182527f17307eab39ab6107e8899845ad3d59bd9653f200f220920489ca2b5937696c31910160405180910390a3505050565b6001600160a01b0382166113e85760405162461bcd60e51b815260206004820181905260248201527f4552433732313a206d696e7420746f20746865207a65726f206164647265737360448201526064016105f0565b6113f1816114e5565b1561143d5760405162461bcd60e51b815260206004820152601c60248201527b115490cdcc8c4e881d1bdad95b88185b1c9958591e481b5a5b9d195960221b60448201526064016105f0565b6001600160a01b0382166000908152600360205260408120805460019290611466908490611c79565b909155505060008181526002602052604080822080546001600160a01b0319166001600160a01b0386169081179091559051839290600080516020611dd6833981519152908290a45050565b6114bd84848461108c565b6114c9848484846115ff565b610c715760405162461bcd60e51b81526004016105f090611ba7565b6000908152600260205260409020546001600160a01b0316151590565b6060816115265750506040805180820190915260018152600360fc1b602082015290565b8160005b8115611550578061153a81611d23565b91506115499050600a83611c91565b915061152a565b6000816001600160401b0381111561156a5761156a611d94565b6040519080825280601f01601f191660200182016040528015611594576020820181803683370190505b5090505b8415611084576115a9600183611ca5565b91506115b6600a86611d3e565b6115c1906030611c79565b60f81b8183815181106115d6576115d6611d7e565b60200101906001600160f81b031916908160001a9053506115f8600a86611c91565b9450611598565b60006001600160a01b0384163b1561170157604051630a85bd0160e11b81526001600160a01b0385169063150b7a0290611643903390899088908890600401611b57565b602060405180830381600087803b15801561165d57600080fd5b505af192505050801561168d575060408051601f3d908101601f1916820190925261168a91810190611987565b60015b6116e7573d8080156116bb576040519150601f19603f3d011682016040523d82523d6000602084013e6116c0565b606091505b5080516116df5760405162461bcd60e51b81526004016105f090611ba7565b805181602001fd5b6001600160e01b031916630a85bd0160e11b149050611084565b506001949350505050565b82805482825590600052602060002090810192821561174c5760005260206000209182015b8281111561174c578254825591600101919060010190611731565b5061175892915061175c565b5090565b5b80821115611758576000815560010161175d565b60006020828403121561178357600080fd5b813561178e81611daa565b9392505050565b6000602082840312156117a757600080fd5b815161178e81611daa565b600080604083850312156117c557600080fd5b82356117d081611daa565b915060208301356117e081611daa565b809150509250929050565b60008060006060848603121561180057600080fd5b833561180b81611daa565b9250602084013561181b81611daa565b929592945050506040919091013590565b6000806000806080858703121561184257600080fd5b843561184d81611daa565b9350602085013561185d81611daa565b92506040850135915060608501356001600160401b038082111561188057600080fd5b818701915087601f83011261189457600080fd5b8135818111156118a6576118a6611d94565b604051601f8201601f19908116603f011681019083821181831017156118ce576118ce611d94565b816040528281528a60208487010111156118e757600080fd5b82602086016020830137600060208483010152809550505050505092959194509250565b6000806040838503121561191e57600080fd5b823561192981611daa565b9150602083013580151581146117e057600080fd5b6000806040838503121561195157600080fd5b823561195c81611daa565b946020939093013593505050565b60006020828403121561197c57600080fd5b813561178e81611dbf565b60006020828403121561199957600080fd5b815161178e81611dbf565b6000602082840312156119b657600080fd5b5035919050565b6000602082840312156119cf57600080fd5b5051919050565b600080604083850312156119e957600080fd5b50508035926020909101359150565b60008151808452611a10816020860160208601611cbc565b601f01601f19169290920160200192915050565b8054600090600181811c9080831680611a3e57607f831692505b6020808410821415611a6057634e487b7160e01b600052602260045260246000fd5b818015611a745760018114611a8557611ab2565b60ff19861689528489019650611ab2565b60008881526020902060005b86811015611aaa5781548b820152908501908301611a91565b505084890196505b50505050505092915050565b6000611aca8285611a24565b8351611ada818360208801611cbc565b64173539b7b760d91b9101908152600501949350505050565b6000611aff8284611a24565b7230b631b796ba3934b816bbb0b4ba173539b7b760691b81526013019392505050565b95865260609490941b6001600160601b0319166020860152603485019290925260548401526074830152609482015260b40190565b6001600160a01b0385811682528416602082015260408101839052608060608201819052600090611b8a908301846119f8565b9695505050505050565b60208152600061178e60208301846119f8565b60208082526032908201527f4552433732313a207472616e7366657220746f206e6f6e20455243373231526560408201527131b2b4bb32b91034b6b83632b6b2b73a32b960711b606082015260800190565b602080825260189082015277115490cdcc8c4e881a5b9d985b1a59081d1bdad95b88125160421b604082015260600190565b6020808252602e908201527f4552433732313a2063616c6c6572206973206e6f7420746f6b656e206f776e6560408201526d1c881b9bdc88185c1c1c9bdd995960921b606082015260800190565b60008219821115611c8c57611c8c611d52565b500190565b600082611ca057611ca0611d68565b500490565b600082821015611cb757611cb7611d52565b500390565b60005b83811015611cd7578181015183820152602001611cbf565b83811115610c715750506000910152565b600181811c90821680611cfc57607f821691505b60208210811415611d1d57634e487b7160e01b600052602260045260246000fd5b50919050565b6000600019821415611d3757611d37611d52565b5060010190565b600082611d4d57611d4d611d68565b500690565b634e487b7160e01b600052601160045260246000fd5b634e487b7160e01b600052601260045260246000fd5b634e487b7160e01b600052603260045260246000fd5b634e487b7160e01b600052604160045260246000fd5b6001600160a01b0381168114610f9757600080fd5b6001600160e01b031981168114610f9757600080fdfeddf252ad1be2c89b69c2b068fc378daa952ba7f163c4a11628f55a4df523b3efa26469706673582212204f3ee519459e90ed672f6ee7fc48718206492a525aae71bc62af88f8104bdac364736f6c63430008070033",
  "linkReferences": {},
  "deployedLinkReferences": {}
}